:2000000000802020F93C00001F1800001F180000000000000000000000000000000000007D
:200020000000000000000000000000001F18000000000000000000001F1800001F1800001B
:200040001F1800001F1800001F180000AD2E00001F1800001F1800001F1800001F18000044
:20006000000000001F1800001F1800000000000000000000DD3A00001F1800000D35000082
:200080001F1800001F180000753B00001F1800001F1800001F18000000000000000000009D
:2000A0001F1800001F18000000000000000000001F180000000000001F1800001F1800002D
:2000C000F0B5FFB08EB0049306920646929802900025E84305908C913468204603F0BEFDA5
:2000E00021188B9503918C4200D3BBE00020879087A908738890059889902F46049D207879
:20010000002800D1AFE0252805D0641C34600699A8477F1CF3E78B97601C306087AC204657
:20012000314600F0A7F88CAA2046314600F0BFF8306801787A2925D0682919D06A2908D071
:200140006C290ED0742908D04C2922D1879980221BE087990122D20217E0879901225203EC
:2001600013E0427887996C2A64D10122120205E042788799682A60D101225202114387914B
:20018000801C05E08799012212030A438792401C0178441C346087A8017373291FD06E2992
:2001A00029D1879832490840202850D040283CD001214A03904238D04A02904242D0CA0242
:2001C000904205D00A0390422FD0090288422CD1F8178C9904C98C91176050603BE087A839
:2001E0000078400619D4009587A88CAA8BAB069900F01DF92FE007AD87A98CAA284600F0F8
:200200006DF9024628460699029B9847411C059D00D0C5198B9503991FE0009587A88CAA45
:200220008BAB069900F09FF815E08C9802C88C900F6010E0401C402201E0401C2022114373
:200240008791A5E78C9802C88C900F7003E08C9802C88C900F8003998B9D681C00D042E7B4
:20026000059F00E02F4638467FB00EB0F0BDC046603F000010B50A681378302B0FD0232B7E
:2002800007D02B2B09D02D2B05D0202B0ED1042306E0082304E0012302E0022300E01023A7
:2002A00004681C430460521C0A60E5E710BDFEB516460D460446086802782A2A10D130683B
:2002C000011D316000686060002805D54042606020680121014321602868471C2F6017E01B
:2002E0000021303A092A08D84218531C2B60435C6F467B545278491CF3E76A460023535466
:2003000012784718002A03D0684603F061F9606038782E2826D1781C286079782A2908D106
:200320003068011D31600068A0602868401C2860FEBD00203039092908D839188A1C2A60C3
:200340004A786B461A548978401CF3E76A46002111541078002804D0684603F039F9A060F8
:20036000FEBDA160FEBDF0B587B01E460C9F13681C1D14601D68002D3BD00491069084681F
:20038000002C04D4284603F043FC844203D3284603F03EFC044606984068A042039000DCA1
:2003A000204601463068019140180296306005940398A0420EDD06980078C0070AD1059890
:2003C00001990E1A0024B44204DA20200499B847641CF8E70026049C069805998E420BDA71
:2003E0002868010A19D12D1DC0B22146B847761CF2E70020B84718E00599039A8A4214DDDC
:200400000078C00711D00198451A0024AC420CDA20200499B847641CF8E70020C0430299D3
:20042000086003F051FC5821016007B0F0BDF0B585B00C4606460A9D1068011D1160006848
:200440000490002844D00393B768002F04D4049803F004FC874203D3049803F0FFFB07460C
:2004600002967268BA42114600DC3946039B18680091401818600192BA420FDD0298007850
:20048000C0070BD10098C01B039000260398864204DA20202146A847761CF7E70026BE4220
:2004A00005DA0498805D2146A847761CF7E70198B84210DD02980078C0070CD00098C61B70
:2004C0000027B74207DA20202146A8477F1CF8E700202146A84705B0F0BDC046F0B589B04F
:2004E00001920F460446FF210846FA30251878680290002607960391FE31202220460092C3
:2005000003F09EFB7F20800006942118089104952E713D46387B0246613A172A2AD801230C
:2005200093402C46B44D2B42254608D007A908AA2846019B00F066F900260596B3E0712520
:200540002B42254622D1022A14D1019B1868021D1A600068C2B2534253410593039AFC32A2
:20056000069B9A18089208702868022188432860002698E001464539032907D3252860D02A
:20058000412803D058280596D0D08DE0019A1068C11D0720814308460830106005C9D14343
:2005A0002F7B4900490D0BD17B3F944911400143049C2CD01920C1438F4234D36E2033E098
:2005C000002A01D4114602E00121C9075140D60F002205923A46413A062A0BD9613F062FDE
:2005E00061D8C0467F443F797F00BF440B5C5C5C3B3631007A441279520097440354545489
:20060000332E290008AB2A4600F042FE4BE0002311461A46059302F0C1FB1921C9438F429B
:2006200025D3662224E04E20E0708F4201D3612100E04121A17008946070002005900226B5
:2006400031E0002006994870252008700120A1E008AB2A4600F02CFF25E008AB2A4602F05B
:2006600033FD20E008AB2A4601F078F91BE04622E2708F4201D36E2200E04E22A2708F42A8
:2006800001D3692100E0492161703F21C900069A51180891002803D02D202070042602E032
:2006A0002B2020700326287B012701466F39092904D801228A4052490A4201D158286BD10C
:2006C000049B029C04972946069F3D1908980C460978C90707D1191D091A62689142069F22
:2006E00001DC691A4F1C411C0398430000263846324603F0E1F908900599002903D0411C7C
:200700000891067000E00146A94206D8481E691A491C202203F094FA2E702078C00605D4F4
:200720000698391A202203F08BFA2EE0069887422BD00698391A3026324603F081FA0798D2
:200740004142414104980140012905D12078400702D43846069905E03878069A511C1070C3
:20076000781C3E70227B412A0CD0582A05D0612A08D0782A01D0702A07D123781B0701D422
:20078000612A02D142784A704670069803F066FA0599401809B0F0BD002E09D0012E049BAF
:2007A000029C8FD10120079029680220084007E0079A296802200840002A09D0049B029CC5
:2007C00008994A1E08922D220A704742474179E70028049B029C08D1480700D472E70898E2
:2007E000411E0891009901706CE70898411E08912B210170002765E708C19000FFFF0F0076
:2008000043020000F8B514460F4605468068002804D4286810218843286001E00120A860E6
:20082000287B1026582808D0782806D0702804D06F2801D1082600E00A262846194600F041
:2008400055F8AA68002A09D102460A4306D12878000749D52B7B0020024612E02B7B642BCF
:2008600003D1642300290BD504E0692B08D1002906D5692301223A60002240428A4100E027
:200880000A4600941146324600F0B0F8A968884206DA401C21684A1E226030220A70F5E7DB
:2008A000287B582803D0782801D070280FD1297809070CD5702800D1782021684A1E226053
:2008C00008702068411E216030210170287B6F280AD12878000707D520684178302903D071
:2008E000411E216030210170F8BDC04610B5037B702B05D10868021D0A60006800226FE015
:200900000068384A024001204403A24222D0402A20D00402A24230D04402A24246D0C40223
:20092000A2422AD00403A24214D0202A12D100221C46643C142C06D8A0402B4C204204D10D
:20094000212420423ED1582B49D10868031D0B60008845E000221C46643C142C06D8A0407A
:20096000214C204204D1212420422BD1582B36D10868031D0B60006832E01A46643A142AF5
:2009800006D89040184A104206D12122104203D10020582B024623D10868C21D072082439B
:2009A0001046083008601068526819E000221C46643C142C0CD8A0400B4C20420AD1212415
:2009C000204205D00868021D0A600068C21707E0582B04D10868031D0B60007800E01046BE
:2009E000114610BD603F000000081200FEB501920D460646582B01D0174800E015480090B5
:200A0000089802903046284305D1029A1068411E116030210170019C3046284313D0304670
:200A20002946224600F01AF807460D46224603F00DF8301A0099085C029B19684A1E1A6096
:200A400008703E46E8E70298006803F007F9401EFEBDC046DA3F0000EB3F000080B5102A05
:200A600006D0082A09D1C0084A078018C90880BD00090A078018090980BD002904D111467F
:200A800002F066FD002180BD002303F09BF880BDF0B595B0DB4801784D2900D07AE14178DD
:200AA000412917D181786C2900D073E1C1786C290FD10021425C002A00D16DE14218537857
:200AC000002B00D169E19278C91C002AF2D1891E63E14178542913D18178452910D1C1786E
:200AE00050290DD10021425C002A25D042185378002B22D09278C91C002AF4D1891E1CE0FE
:200B00004178532900D045E18178502900D041E1C178442900D03DE10021425C002A00D1F8
:200B20009BE042185378002B00D197E09278C91C002AF2D1891E91E0491EFC31CCB2002C70
:200B400004D0411DDF48224603F0C2F8DD4D00262E5501A8282103F08FF8DB49284602F064
:200B6000B1FC0446002827D00BAF0C37D64D0020294602F0A7FC39460839086000281BD0E0
:200B80000020294602F09EFC391F0860002813D00020294602F096FC38600C370028E6D1A2
:200BA0000AE08019A1194A784270002A09D089788170F61C002904D001A8A15D81550029DA
:200BC000EFD101AC204602F003FDC14D28600A340C98002101AA5218435C9372002B09D0FA
:200BE00043185E78D672002E04D09B781373C91C002BEFD1204602F0EBFC686001A814301D
:200C00000D99002201AB9B188C5C1C75002C09D08C1866785E75002E04D0A4789C75D21CBD
:200C2000002CEFD102F0D4FCA86001A81E300E99002201AB9B188C5C9C77002C00D13CE1CA
:200C40001E338C1866785E70002E00D135E1A4789C70D21C002CECD12FE1491EFC31CCB2BD
:200C6000002C04D0411D9748224603F031F8954D00262E5501A8282102F0FEFF92492846FE
:200C800002F020FC0B9000281BD00BAD0C358E4C0020214602F016FC2946083908600028FA
:200CA0000FD00020214602F00DFC291F0860002807D00020214602F005FC28600C350028B9
:200CC000E6D10B9801A9825D8A55002A0AD08919821953784B70002B04D092788A70F61C76
:200CE000002AEFD101AC00252046294600F0F4F801F0C6FD754E30600A340C9801A9491992
:200D0000425D8A72002A09D042195378CB72002B04D092780A73ED1C002AEFD100252046CE
:200D2000294600F0D9F801F0ABFD706001A814300D9901AA52194B5D1375002B09D04B19D9
:200D40005C785475002C04D09B789375ED1C002BEFD10024214600F0BFF801F091FDB06026
:200D600001A81E300E9901AA12190B5D9377002B0AD01E320B195D785570002D04D09B7866
:200D80009370E41C002BEED1002100F0A5F801F077FDF06015B0F0BD491EFC31CCB2002C53
:200DA00004D0411D4748224602F092FF454D00262E5501A8282102F05FFF4349284602F01E
:200DC00081FB044600282AD00BAF0C373E4D0020294602F077FB39460839086000281ED072
:200DE0000020294602F06EFB391F0860002816D00020294602F066FB38600C370028E6D19F
:200E00000DE0C046200B20208019A1194A784270002A09D089788170F61C002904D001A800
:200E2000A15D81550029EFD101AC204602F0D0FB284D28600A340C98002101AA5218435C71
:200E40009372002B09D043185E78D672002E04D09B781373C91C002BEFD1204602F0B8FB9A
:200E6000686001A814300D99002201AB9B188C5C1C75002C09D08C1866785E75002E04D0C1
:200E8000A4789C75D21C002CEFD102F0A1FBA86001A81E300E99002201AB9B188C5C9C779B
:200EA000002C0AD01E338C1866785E70002E04D0A4789C70D21C002CEED102F089FBE860CA
:200EC00015B0F0BD20092020143E0000300E2020200E2020100E2020F0B58BB00A46034622
:200EE000E24906463778C8194078761CC006F9D42D2F01D02B2F01D1307801E0761E38461A
:200F000001F082FB01D3014601E0014620394E293FD0492959D1707801F076FB00D2203831
:200F20004E284CD1B07801F06FFB00D22038462845D1002A01D0F01C1060F07801F064FBBE
:200F400000D2203849281FD1307901F05DFB00D220384E2818D1707901F056FB00D2203836
:200F6000492811D1B07901F04FFB00D2203854280AD1F07901F048FB00D22038002A03D075
:200F8000592801D1083616602D2F00D1C7E0BA49C6E0707801F038FB00D2203841280ED14F
:200FA000B07801F031FB00D220384E2807D1B0490024002A00D127E1F01C106024E1002AA9
:200FC00000D01360002421461EE1AC490791002530280292049317D1707801F015FB00D26C
:200FE0002038582810D1B078A04909184978890707D42E2808D1F0789C49081840788007FF
:2010000002D5B61C9E4807902C469C4B01F034FC411E884108909A4B059501F02DFC411E78
:20102000884103900A9506952B46294632782E2A03D1002939D1012135E009911446303C9A
:201040000A2C01D3002100E001210898084201D0284611E00398002827D084488118497869
:20106000890722D528460A2C06D3114661391A2900D2203A1446373CE200824B99189D58EA
:201080004C680A99059A079B01F0D2F82A46234600F001FB05460A910999002902D0069817
:2010A000401E06900123761CC0E701202D2F099003D1C0070A9941400A91069FBC00039873
:2010C0000028204600D13846002B00D181E00899002909D01346613B1A2B01D3134601E0EB
:2010E0001346203B452B09D00399002912D01346613B1A2B00D2203A502A0DD172782D2A4D
:20110000019501D02B2A0DD1B11C0491B4780023DB430BE004963DE0049627463AE0554905
:20112000002471E0711C0491002314462546303D092D25D800234D25AD00303C092C24D8B1
:201140002D2A01D01E4600E05E423618F7177E40F61BAE42099F00D80027089939420AD1CA
:201160000127B9028E4200D800270399394202D10A2159430B19049C611C64780491DCE797
:201180000499C918491E049100232D2A019D00D15B421F18002428460A992246234601F021
:2011A000F3FD002815D10898002817D04D20800087421ADD02F088FD222101600024284628
:2011C0000A992246234601F0E9FD002816D12A4915E02C46029A049B0A9912E028460A99FA
:2011E0003A4601F007F9044609E0274887420EDC02F06AFD22210160214600E01D49029AE3
:20120000049B002A00D0136020460BB0F0BD002F15D41E4C029A049B002F0ED0F80709D052
:201220000CCC28460A99083C01F002F8049B029A05460A917F080834EEE72C46CCE728464A
:201240007C42124D029A049B002C0CD0E10707D00CCD0A99083D00F09BFC049B029A0A9151
:2012600064080835F0E70446B6E7C046103D00000000F87F0000F0FF0000F07F000024407B
:2012800000003040183E0000CCFEFFFF983E0000F0B5A5B0049308920E46074600240A945C
:2012A0007E4D22462B4601F08DFD002813D100247B4D3846314622462B4601F079FD0028BA
:2012C00009D1002238463146134601F05DFD00283C46354607D10AAA2046294601F014FEF0
:2012E0000A98401E0A900899087B0BAE412801D06D4800E06B4809908868019030200390F8
:2013000030700022079220462946134601F046FD01210028029101D0C8074540771C204615
:201320002946079A134601F02FFD00280DD124AA2046294601F0E8FD249801210A1A204640
:20134000294601F057F804460D462046294602F003F806463946059701F08AFE0690304693
:2013600002F0C0FA02F099FC04460D460198471C20D30598069946180022204629461346C4
:2013800001F002FD002848D1002220462946474B00F04EFF04460D4601F0DEFF0999095CE4
:2013A000771C317002F09EFA02F077FC04460D463E46E1E70BA806994618002F16D07F1EBF
:2013C000002220462946394B00F032FF04460D4601F0C2FF0999095C3246761C517002F05E
:2013E00081FA02F05AFC04460D46E6E73178099C204602F0F1FB001B08280EDB0196741ED1
:20140000089D079F099E2178304602F0E5FB801B0E2805DD2770641EF5E7089D079F04E022
:201420000999081840782070019E37700A98297B4129049C01D0702100E05021069E059F11
:20144000224601F0ECFEAA68501C04D1384602F005FC421EAA6038463146234602F02AFAA7
:20146000A8680028029A02D128680007C20F38463146234601F0F0FB287B412801D07820AE
:2014800000E0582021684A1E226008702068411E21600399017025B0F0BDC0460000F07F9D
:2014A0000000F0FFDA3F0000EB3F000000003040F0B5A3B003930F460446049291680029A5
:2014C00003D0002904D5062100E001210498816007910AA8302108910170002520463946E2
:2014E0002A462B4601F05AFC01210028059101D0C8074740624E20463946604A334601F014
:201500006BFC002809D00022204639465E4B00F03FFB04460F466D1CEDE75A4E002220465D
:2015200039460992134601F02FFC002811D1002220463946334601F031FC002809D0002251
:2015400020463946504B00F073FE04460F466D1EE4E702950AA8451C2046394601F0FCFE3B
:201560000695294601F084FD07998842019004DD481C0AA90A18085C1FE0C9430E180AA992
:201580000D18681C07902046394601F0E5FE02F0A9F902460B462046394600F077F80022BF
:2015A000394B00F045FE04460F4601F0D5FE079A30306870761C1546E3D3C0B23528039E25
:2015C000049F029B099D0FD31446501E0178491CCAB201703A2A03D330210170401EF5E77A
:2015E0000AA98842224640D00198C41815700220C043844202DBB868844207DD601E397B38
:20160000891EC9B2324601F00AFE0124069802F025FB401E0599A0421ADB0028089A01D4F0
:20162000069A125C1346303B5D1EAB41C9431943C90705D13978090702D40025059905E024
:2016400031684B1E33600A7001250021401EE2E73868082202402A43501E8241069821465E
:20166000334601F0F9FA23B0F0BD501E002101700198C018441C0AA80690B8E70000C0FF16
:20168000FFFFDF410000F03F00002440FCB40124E407634002E0FCB40124E40708B41D03B8
:2016A000ED08D60D354356025F007F0D06D12C00344300D0AEE001B0FCBC7047A40825438B
:2016C00007242402FF34A74205D10020190D090501B0FCBC7047002B03D50024A61BAC417E
:2016E00025000B03DB08C20D134342024800400D07D11C00144300D08CE00EBC1000F0BCC9
:20170000704701246407234307242402FF34A04205D10020090D090501B0FCBC7047002953
:2017200003D50024A21A9C412300C11B08D51C002B0025001400320026000024611A380089
:20174000362925D502B4393949420C00203C03D22F008F40374301E03700A740002F01D0C9
:2017600040210E4302BC20290BD500290ED04C42203420B4A5402C0020BC0D41CE4036197B
:2017800004E000292E000D4120390E4192196B411C0014433ED00024002B04D501240021D2
:2017A0008A1A99410B00401E52005B41FBD50121890215000D400CD0521800277B4101D378
:2017C000401C0BE00721C90115000D4001D189008A43072109028A4352005B41801C19DDC6
:2017E00007210902FF31884209D30EBC0020C90F0902FF31C900C91D0905F0BC7047190B9F
:2018000000050143E40721431805120B104301B0FCBC70470021002001B0FCBC7047FEE73D
:20182000F0B587B01D4616463024059004700027104619463A463B4601F0B0FA002801947B
:2018400002D00120C00745400D9804900C9803903F4C304629463D4A234601F0BDFA0028A9
:2018600009D00022304629463B4B00F091F906460D467F1CEDE70598441C00223046294676
:201880000692134601F080FA002811D1002230462946304B01F082FA002809D0002230465A
:2018A00029462D4B00F0C4FC06460D467F1EE4E70398C01903903046294601F04DFD2146FC
:2018C00001F0D6FB02942418C019049908600398471C012F1ADB3046294601F03DFD02F071
:2018E00001F802460B4630462946FFF7CFFE0022194B00F09DFC06460D4601F02DFD303085
:20190000611C20707F1E0C46E5D100E02146481E0278352A0DD3891E019C0A78521CD3B2F6
:201920000A703A2B02D30C70491EF6E7059A914204D006990170029807B0F0BD06990170CF
:2019400004990868401C08600598F5E70000C0FFFFFFDF410000F03F00002440F0B5A1B0D7
:20196000049305469068002801D5062090600290039200243D4F2846224606913B4601F0C3
:2019800021FA06990028264614D10026384F284632463B4601F00CFA069900280AD1002245
:2019A00028460592134601F0EFF9069B00282E461F4622D12F4D02F07DF901F0EFF9002876
:2019C00009D00022304639462B4B00F031FC06460F46641EEFE7284D02F06CF901F0F2F9E3
:2019E000002807D002F066F900F0D2F806460F46641CF1E735463B46059407A80299009174
:201A0000019008A82A46FFF70BFF0446079D022D0DD1059D6D1C204602F020F92018401EE8
:201A20000021017028460125049E039F02E0049E039F0598397B324601F0F1FBBA682046E8
:201A40002946334601F036FF204602F007F9854203D138680007C20F00E001222046294635
:201A6000334601F0F9F821B0F0BDC0460000F07F0000F0FF0000F03F00002440FEB50029BA
:201A800005D03D4C0027072C03D83E4603E000276FE02646083E8E426BD30197431E0822F3
:201AA0001842074600D01746072800D81746C81D0290072531480068804731480178002988
:201AC0000BD10121092C01D2002203E02D4A0023936016602C4B1A6001700298A84302907F
:201AE000781E7942284C2568002D34D02C46083406190E40B44210D02A4610323346083B04
:201B00009A4201D9F619F9E72A6801239A43A218029BF3189A42E6D306E02A6801239A431D
:201B2000029B9A42DFDB2646284602F031F8A64216D0301B083829680122D3431940091ADE
:201B4000286018402F1811430839B9600837284601F0F4FE05E00D4800688047019F08E02F
:201B60002F463846029901F0DDF808480068804708373846FEBDC046000800009810202024
:201B8000B410202000002020480E20209C102020FCB40C005C40E40FE40710B41D032D0B2D
:201BA00056006D415F007F0D73D001246405254307242402FF34A74261D00B031B0B4200E9
:201BC0005B414800400D64D001246405234307242402FF34A04252D0C01B002100273624A7
:201BE000AB4200D1B24204D37F414941921BAB4101E07F414941641E06D0002B01D1002ACF
:201C000002D052005B41EBE7202C07D2162C0AD33900A7402026361BF1400BE0203C390086
:201C2000A140002706E0A1402026361B3D00F5402943A74001246405214202D17F004941AC
:201C4000401E00247F1C61410124A405214202D0401CA14301E06408A14303242402FF34D1
:201C6000001916DD2419A04209D8CC074908000501437808204310BC2143FCBC704702BCAB
:201C80000020C90F0902FF21C900C91D0905FCBC70470021002001B0FCBC70478AB001F069
:201CA000C3FE344801F0E4FE0026304631463246334601F005FB642001F0AAFC3046314617
:201CC000324601F0DBFB0A24204601F0A1FC0125304631462A4601F0D1FB204601F098FC78
:201CE000A804254C2060254D286001F0CFFC082020602860224801F0BBFE224801F0B8FE3C
:201D0000214C224D224F00F039F9A05FAA5F0146134601F0FBFA322001F07AFC3878012834
:201D2000F1D13E70FEF7B4FE1A4D286801F030FC09900891686801F02BFC07900691A86820
:201D400001F026FC344606460F46E86801F020FC079A0092069A0192029626460A4C0B4DE0
:201D600003970B4F049005910B48099A089B01F0F9F8C8E7FC3F000080E200E000E100E0DD
:201D8000E03E0000793F0000A4102020A81020204C0E2020300E2020373F0000F0B585B019
:201DA0000F4606460024E543384800688047384600F085FF002863D0B8680397F968325D90
:201DC000641C002AFBD10095039D6A69072302931A40671E042A01970CD10024002F47D0DA
:201DE000286831193A4601F0D1FD002842D404193F1AF3E70B1A3C46002C39D09C42274615
:201E000000D31F466969029A11400229049311D1002B07D00021725C0A2A06D0491C8F42F6
:201E2000F9D107E000252F4605E0721802D04F1C012500E0002531463A4601F049FF0399B4
:201E40008868C0198860F619E41B002D0D46049B01D1DB1BD0D1284601F0B8F9002809D129
:201E6000A868E9680B1A696920220A436A61C3E7019D05E068690121890201436961009D5A
:201E8000034800688047284605B0F0BD981020209C102020B0B5364A80184A6842600A78D1
:201EA000222A56D8930001A4E3589F46491F0000531F0000491F0000531F0000531F00002A
:201EC000531F0000531F0000531F0000531F0000531F0000531F0000531F0000531F000072
:201EE000531F0000531F0000531F0000391F0000531F0000391F0000531F0000531F000086
:201F0000531F0000531F0000531F0000531F0000531F0000531F0000531F0000531F000031
:201F2000531F0000531F0000531F0000391F0000531F0000391F0000036803242407A34386
:201F4000012464071B1903E0036803242407A34303600B69C360CB68C46A064D2540064CD2
:201F60001C402B19C362097A11430160B0BDC046041800008888FDFF77770200F0B581B003
:201F8000304C207800285BD02F4D29782F48002646540178242951D1411C2422D2B2002A4D
:201FA0004CD0232A0CD00A78002A47D0232A08D04A78002A42D0232A06D08A78C91CEDE718
:201FC000491E002903D139E0491C002936D0411C2422D2B2002A0ED0232A0ED00A78002AEA
:201FE00009D0232A0CD04A78002A04D0232A06D08A78C91CEDE7314602E0491E00E0491C3C
:202000000E70401C124901F05DFA002813D001F0DFFA104F38600E49002001F053FA00289A
:2020200009D001F0D5FA02460B48026039680B4800F098FF02E00A4801F01AFD2E7026701F
:2020400001B0F0BDB2102020B31020207C0D202032400000A4102020A81020200E3F0000A9
:20206000593F0000F8B5002867D00446334800688047083C324E0022314615463068012750
:202080000246BA43B6180836A1420A46F4D32D4B2B4A072B01D99A18083A964200D9002631
:2020A000A14247D1C00745D0002D0AD029683940284600D00020002E06D100292AD100268B
:2020C0000BE0002E26D000203178C907314600D0002100280BD00E460546284601F058FD9A
:2020E000002E08D101F0A4FD801808300FE0002500292F460ED0304601F04AFD002F0DD02D
:2021000001F096FD33680B408018C018103028602C460CE020680121884307E020680121B9
:20212000C943084032680A40801808302060204601F004FC044800688047F8BD98102020A8
:2021400000002020000800009C102020F0B581B0002941D04A1E93B2344C5C43630C0324D9
:202160005C43121B521C93B2032B01D0144600E000242D4A032B009101D10B4629E00025FC
:202180000B46214606E09B1E9761801CAD1CACB2B4421ED006781768FF0705D01768FF07EC
:2021A00002D01768FF07F6D19661471C01262E43B4B28EB2B4420AD03F781468E407E2D0C9
:2021C0001468E407DFD01468E407F6D1DBE75B1E38460099032906D201B0F0BDDB1E91611C
:2021E000C01C1904F8D001781468E40705D01468E40702D01468E407F6D1916141781468DB
:20220000E40705D01468E40702D01468E407F6D1916181781468E407E0D01468E407DDD081
:202220001468E407F6D1D9E708111040ABAA0000FCB50C005C40E40FE40710B4DD02540DB7
:202240002543D6025F007F0D60D00124E407254307242402FF34A74250D0CB02440D23439A
:20226000C2024800400D51D00124E407234307242402FF34A04241D0C01901B41800290028
:2022800001F040FA0F0001B41800310001F03AFA03000C001000310001F034FA060010005C
:2022A000290001F02FFA05007618002202BC01BC55415141A419554151418024A4005B19E2
:2022C0005141FF18514100D564003F19514102D47F00494100E0401C03242402FF34001BEA
:2022E00014DD2419A04209D80305F80A4C0520434900090B194310BC2143FCBD0020FF214D
:20230000C900C91D090510BC2143FCBD0021002001B0FCBDF0B585B01E46144603910546F5
:2023200000200490C7432F48006880472868401C4BD00294042C324601D0002A45D001974C
:202340002B1D68686F6900280ED0390705D5401E0093FFF787FE009B324608208743049860
:20236000186058609860D8600120029C012C00D8044607218F4327436F61FF2A164600D95D
:2023800006020398002804D0012A02D0401C18600CE0761C30461C4601F074FC206000286E
:2023A00019D0401C686008210F436F618119491EA860E96028610C480068804709480068AE
:2023C00080470A480A490160049F074800688047384605B0F0BD0120800207436F61019FD2
:2023E000F3E7C046981020209C10202088102020B1370000F8B515462A4E0A0D771C3A40C5
:20240000294B9A4213D00C46002A18D10122D2079443044344D00022244BFFF709FF0C4615
:2024200023498D4208DC234A234B214636E002460B46FFF730F9F8BD220D3A40363A511935
:20244000B1420ADD01F040FC222101600120C00704401D4821180020F8BD012904DB174AC8
:20246000144009052143F8BD3522D24391420CDC01F02AFC2221016012488542E6DA0120FD
:20248000C007044000202146F8BD0C4A144009051B225205891821430022094BFFF7C8FE72
:2024A000F8BDC046FE070000FF07000000005043AF3CFFFF59F3F8C21F6EA501FFFF0F8014
:2024C0000000903C51C300000000F07FF0B58B4200D1824204D90B0002000021002040E05B
:2024E000002B00D1002A0CD10B00020000210020002B00D1002A01D0C943C04300F03BFE5C
:202500002FE01C0015000B0002000CB4002126002F00FF19764102D2491C4029F9D10020DD
:202520001E001700FF19764102D2401C4028F9D10E1A21002800320001F0F0FA0C000500A6
:202540000CBC00200021A34200D1AA4201D3521BA341404149416D08E7073D436408761EBD
:20256000F1D5059F002F01D03A607B60F0BD002A49D084468B071CD1830722D1102A08D3B1
:2025800070B4103A78C978C0103AFBD270BC103238D0042A2CD3082A05D30C2A01D308C9B5
:2025A00008C008C908C008C908C092072AD0920F22E00B780370491C401C521E22D08B0740
:2025C000F7D1C30714D18307D8D0121F12D308C903801B0C4380001D121FF8D20AE008C92B
:2025E00003701B0A43701B0A83701B0AC370001D121FF4D2121D05D00B780370491C401C51
:20260000521EF9D160467047014661391A297047024670B50A4392072AD11E4DEE0104C8D4
:2026200008C9541B9443344017D0D0B2D9B2401A2106014310D190B299B2401A2104014325
:202640000AD110021902000A090A401A2102014302D1100E190E401A70BD9A42DFD010BAA0
:2026600019BA884201D9012070BD0020C04370BD02780B7801300131002A09D09A4207D12E
:2026800002780B7801300131002A01D09A42EFD0D01A70BD01010101FEB504460025EF43D5
:2026A0000168481C06D002916669204600F08EFD002802D03D462846FEBD01200003064024
:2026C0000196207D000707D56068401EFFF7CAFC60690821884360616560A560E5602068EC
:2026E00000F0C6FD0546276001980028E3D0064800688047029800010449081801F0F8FA79
:20270000034800688047D6E798102020DC0C20209C102020F8B5451C00780023082B32D0A8
:202720002F78C2070CD16A780F241440E41C122C0BD102242E57F4B2002E08D4EE1C0EE076
:202740006D1C4A1C0F7011461AE0AE1C08E02E1DED7800957F252C40009DED012C1912349D
:202760003D0112095219094DAA420ED0D243002C05D08D5C4F1C0D70641E3946F7E7354634
:2027800040085B1CCAE72846C5E7F8BDFF0F0000B0B501220446243C611E8C4114490B788E
:2027A0001C430FD0002B21D0232811D100200870114908801148027011480E49120201F098
:2027C00087FAB0BD0A700B48110201F055FAB0BD094B1C88FF250235AC4203D300200870CF
:2027E0001880F0E703490855601C1880B0BDC046B0102020200A2020AC1020204C0E20203A
:20280000200B2020FEB502930F46194D0024E143184E00973740019043422B46BB4101D238
:202820000C4623E0084602990E405342B54101D204461BE0134601990B433E431E43029DA7
:20284000009E13D02B46334004D401998B1A3346AB4103E00199531A2B46B341044605DB1E
:2028600051406E400E43701E864134462046FEBD0000F07FFFFFFF7F284607992A4683E20A
:202880000CB41B4B4A00D21A1BD2000D0A03104301221202801802D3400812038918400A96
:2028A000002902D50122D20710434900490D38221201891A0CD4FF290DD2C90508430CBC52
:2028C0007047DB431A40024305D0D8430CBC704700200CBC7047C90FC907FF20C00508439F
:2028E0000CBC7047C046C046C046C046C046C0460000E0FF10B51549154C204601F076F90C
:202900001449204600F04EFD134801680322D203914301600169114A0A40911C01614169FE
:202920000B220A4334218A434261416801221140436893435918416009490B6894021C43EE
:202940000C6001681143016010BDC0462A400000008010400C400000009110400000FFFFB5
:202960002890104010B51549154C204601F03EF91449204600F016FD134801680322D203B9
:20298000914301600169114A0A40911C016141690B220A4334218A434261416801221140DE
:2029A000436893435918416009490B6894021C430C6001681143016010BDC0462C40000001
:2029C0000000104016400000001110400000FFFF28101040F8B515460E46074615480068FC
:2029E0008047154C2770380A6070A670300AE070300C2071300E6071A571280AE071F420DD
:202A0000002521462A462B4600F006FF2046294600F0E8FE2078617809020818A1780904E7
:202A20004018E178090644180448006880472046F8BDC04698102020400E20209C1020207C
:202A400070B59AB00D46064615480068804701AC2046314601F0FBF8304601F006F90646BC
:202A60002018401C294601F0F2F8284601F0FDF83018831C0B4DF7202946224600F0CCFE3D
:202A80000021284600F0AEFE287869780902081804B205480068804720461AB070BDC046CA
:202AA00098102020400E20209C10202010B51449144C204601F09AF81349204600F072FC29
:202AC000124801680322D303994301600169104B0B401A330361416911433C229143416168
:202AE000416801221140436893435918416009490B6894021C430C6001681143016010BD15
:202B00002E4000000000504020400000001150400000FFFF2810504070B514460D460646D2
:202B20001648006880473068401C1FD0012C08D1307DC00605D5B068002802D031694019CD
:202B4000451A304600F042FB7069052149028843706130682946224600F004FF0446084891
:202B600000688047601C06D0002404E00448006880470020C443204670BDC04698102020A9
:202B80009C102020FEB5044600680021425C002A17D03A2A01D0491CF8E74618134D22D0EB
:202BA00008290F4600DB0827002912D06A46394603781370002B06D0521C401C491EF7D153
:202BC00007E00A4D0FE0022903D3501C491E01F053F868460021C15500F052FE002802D099
:202BE000711C216005462846FEBDC046C00F2020F8B50446164F174D0E462E400120009407
:202C000064423C46B4411AD31D405442AF4116D31046009C20433543054311D00020C043C5
:202C20001C460C400ED4009CA41A0C469C4106DB0098504059400143481E81410846F8BD6A
:202C40000020F8BD009C141B1C468C41F0DAF6E70000F07FFFFFFF7FF8B51C4617460E4653
:202C6000054600F0FBFF0021012E03DBB04201DBA919491E002F04D02268531E23602E2328
:202C800013703246824206DD23685F1E276030271F70521EF6E7B04200DB3046012808DB81
:202CA000A9420BD308782268531E23601070491EF6E72068411E216030210170F8BD10B5E5
:202CC000044601680020491C25D06269D10623D4100605D500210222204601F005F86269DA
:202CE000900604D4500602D52020024362616168012000290DD1042111400AD1032002404A
:202D00000120030200212046FFF704FB014640424841E168216110BD012189020A4362616A
:202D200010BD7047F8B50446026801251046A843401A102821D366180838B0600836A843CA
:202D4000371808370E4A0F48072A01D910180838009187420DD23878C0070AD1384600F0CA
:202D600017FF3068E94308403A680A40801808303060304600F0E2FD009A2A432260F8BD62
:202D8000000800000000202010B5FFF731FF002801D0002010BD012010BDC04610B5FFF76B
:202DA00027FF002801DB002010BD012010BDC04610B5FFF71DFF002801DD002010BD01201D
:202DC00010BDC04610B5FFF71DFD002801DA002010BD012010BDC04610B5FFF713FD002874
:202DE00001DC002010BD012010BD8446830706D0002A29D001700130013A8307F8D1042A70
:202E00001CD30906090E0B0219430B041943082A10D30B00102A09D370B40F24161B2240A9
:202E20000C000D003AC0103EFCD870BC082A01D30AC0083A042A01D302C0043A002A03D020
:202E4000013A8154013AFCD260467047F8B514460F460646124800688047124D2C70200AA6
:202E60006870AF70380AE8700023F05C5B1C0028FBD1F0202946324600F0CEFC00212846A7
:202E800000F0B0FC287869780902081805B2064800688047002D00D425462846F8BDC04621
:202EA00098102020400E20209C102020B0B511480068C0B20B281CD10F48C2690F4B1C7888
:202EC000302CD1B209D8651C1D700D4B1A55232905D10C4A0123137001E000221A70026847
:202EE000D20705D00268D20702D00268D207F6D18161B0BD2010504008115040B31020204A
:202F00007C0D2020B210202070B514460F4D0B462B40002222600E4EB34215D81E460643C0
:202F200012D01E0D07D100220A4BFFF781F90D403522D2432B461B0D9A18074BD218226003
:202F4000064A0A400649511870BDC046FFFFFF7FFFFFEF7F0000504302FCFFFFFFFF0F80E8
:202F60000000E03F83B01EB505AC0EC401900F48006880470E4A9069401C0DD005A90291C7
:202F80000C48009018320C4B01A8FDF799F804460A480068804704E0084800688047002030
:202FA000C44320461EBC02BC03B0084798102020500E2020E13C0000D93C00009C10202066
:202FC000F8B516460C460746104800688047FF2E01D9012006020E4D2F70380A6870AE7060
:202FE000300AE870F22000222946134600F014FC2846214600F0F6FB2878697809020818E1
:2030000004B20448006880472046F8BD98102020400E20209C102020F8B515460C4607465B
:20302000104800688047FF2D01D9012005020E4E3770380A7070B570280AF070F320314675
:2030400022462B4600F0E8FB0021304600F0CAFB307871780902081804B20448006880478B
:203060002046F8BD98102020400E20209C102020F0B587B00191064602AD0020E8741235A7
:2030800037460A243846214600F04AF84443391BCA175140891A3031297009376D1E122F78
:2030A0000746EED8002E01D46D1C01E02D20287002A8441B224614320198294600F008FEF6
:2030C0001334204607B0F0BDF0B5FFB086B01C4615460246A868002801D50620A860236889
:2030E000039304AB0090019305A80B46FEF798FB0646049FAA683946234600F0DBFB2068AA
:203100000399814201D0012202E028680007C20F304639462346FFF79FFD7FB006B0F0BD90
:203120001CB5002922D04C08002900D5494242105440002800D5404200230A00904201D988
:203140005200FBE790425B41904200D3801A914201D25208F6E71900002C00D540426400B1
:2031600000D549420200080011001CBD01000020FFF7D7FD1CBD704770B50C480C49416011
:203180000C4A51600C4B59600C4C61600C4D69600C4E71600C490160116019602160296008
:2031A0003160102000F074FD70BDC04600080A40030000B100280A4000088640008810409C
:2031C00000081040000850400100002670B504460025EE430068411C18D061686269930639
:2031E0000BD5002909D0A3688B4206D05A1A00F0CDFB00280DD4616862692161A16050069D
:2032000005D5302082430025626100E03546284670BD606901218A0202433546F4E77CB59E
:2032200015460C460646C01731464140081A009200210A226423FDF7D9FB3046093012288D
:2032400008D8DF202040502804D02868411E296030210170002E01D42B2000E02D2029689D
:203260004A1E2A6008702868411E296004707CBD70B50026F44300281AD40546092817D8BC
:203280000C4800688047E8000B4A115800290CD015180969686888470446401C05D02868B7
:2032A00041890122914341812E60044800688047204670BD98102020381020209C10202093
:2032C00070B582B00D460646009201930D4C0E49204632462B4600F04FFA0020215C0029D4
:2032E0000AD021184A78002A05D08978C01C0029F4D1401E00E0401C81B20248FEF726FFFE
:2033000002B070BDAE0D2020A43F000070B582B00D460646009201930D4C0E492046324646
:203320002B4600F029FA0020215C00290AD021184A78002A05D08978C01C0029F4D1401E46
:2033400000E0401C81B20248FEF700FF02B070BDAE0D2020B63F00000CB54A00520D032361
:203360001B02FF33D21A13D31F239A1A12D98E46C9020123DB071943D1400B2A02D21532E9
:20338000D04001437346002B00D5494208000CBD00200CBD0B000120C007002B00D40138B0
:2033A0000CBD704770B511221302C218C4580125AC43C4500C888D7825438C882C43C55860
:2033C000084E2E40084D2540AC19C4508879CB790343087A184351687E2399431840081880
:2033E000506070BDE798FDFF18670000B0B505460D48006880470D4C2570280A6070F120C1
:20340000002521462A462B4600F006FA2046294600F0E8F9207861780902081804B204480B
:20342000006880472046B0BD98102020400E20209C102020B0B504460D48006880470023D2
:20344000E05C5B1C0028FBD10A4DF5202946224600F0E2F90021284600F0C4F928786978FA
:203460000902081804B20448006880472046B0BD98102020400E20209C102020B0B582B024
:203480000B46054600920D4C0D4920462A4600F073F90020215C00290AD021184A78002A58
:2034A00005D08978C01C0029F4D1401E00E0401C81B20248FEF74AFE02B0B0BDAE0D2020FE
:2034C000C83F0000F8B50D460F4F002801D0064600E03E683046294600F080FA34183C6085
:2034E000305C00280DD02046294600F0D3FA21183960205C002805D0481C386000200870CA
:2035000000E000242046F8BDA01020200B480068C0B20B2810D10A4800680A490A887E2A14
:2035200005D80A88531C0B800749885401E0002008800648012101707047C04620901040CF
:2035400024911040AE102020400F2020B11020201CB50A0017D000230124E407A04200D22F
:203560000400944201D95200FBE790425B41904200D3801A914201D25208F6E719000200BE
:20358000080011001CBD01000020FFF7CAFB1CBD08B443001B0E0FD0FF2B11D00721C90180
:2035A0005B18C10FC9020B43010048074902090B1B05194308BC70470021002008BC70474D
:2035C00001004002C90DC900C91D090508BC704710B50E4902788B185B78401CDB06F9D484
:2035E00000212D2A04D02B2A02D0401E134600E00378303B092B04D80A244C431919401C80
:20360000F6E72D2A00D14942084610BD103D0000B0B50E497D22120242430B68262006E01F
:203620000D1F2D68E41A6419201890420DD21C460B68A34205D10B68A34202D10B68A34252
:20364000F6D09C42ECD9E41AEEE7B0BD18E000E00C48002101600C48014608390A6803239F
:20366000DB4313400B6001680122914301600168130299430160001F016812030A430260A6
:203680007047C04608030B4008010B4080B5FFF773FD00F0B7F9FFF7DBFF00F051F8FFF789
:2036A00029F9FFF75FF9FFF701FA00F055FA0448B8210022425403482C21425480BDC0461C
:2036C000200C2020E00D202070B50A480A4C84420CD00A4D0A4EB54208D02A686968501C95
:2036E00012789200A25890470835F4E700BF00BF70BDC046B4400000A8400000BC4000003C
:20370000CC400000FCB4020C0B0CFF242402FF34204021400C00444315005D4306005E439C
:203720000F005743320C3B0CA818C01832043B040025A1186841C9186841FCBC70470000CE
:2037400010B50849084C204600F0F8F907492046FEF7A0FB06480168012211430160054896
:20376000026010BD113E000000008640903F0000281086400811864082B0F8B50692079348
:203780000291019006A9039107480090074B02A801AAFCF795FC019900220A7004B080BC92
:2037A00002BC02B00847C046AD3B0000BF3C000070B50A4C2046FEF76FFF1834084D2868EC
:2037C0000126864209DA2168002903D42046FEF763FF2868761C1834F3E770BD500E2020BE
:2037E00090102020B0B50B4A13680024082C04D015192D790555641CF8E7002909D00C32BB
:20380000002B06D010784C1C08705B1E521C2146F6E7B0BD0008202070B50B4C23602071CF
:203820000020082804D00D5C26187571401CF8E70D34002B06D0501C117821705B1E641CDB
:203840000246F6E700BF70BD000820200446094800688047084D6968002901D020468847F0
:203860002868002800D0804704480068804700F047FAC04698102020881020209C1020209B
:20388000F8B504460078002500280ED000952827074E782F08D0F51928462146FEF7B8FE48
:2038A000002802D02837F4E7009D2846F8BDC046C00F2020F8B51C4615460646571800F0EA
:2038C000CDF9711E012D0CDB3022012F02DB874200DCCA5D23685E1E26601A707F1E6D1E14
:2038E000F0E7F8BD04B40422002802D1002104BC704701D50832404212021F320100521E63
:203900004900FCD30805090B1205114304BC70471CB5019007480068804701A8FFF732F9E2
:20392000016A01988847044603480068804720461CBDC046981020209C102020B0B5016809
:2039400001229143064B1C68002C06D0256895438D4202D208342346F5E784601860B0BD47
:20396000480E2020B0B503460020C043002B0AD4092B08D8DB00044CE558002D03D0ED6905
:20398000E0184068A847B0BD38102020B0B503460020C043002B0AD4092B08D8DB00044C8A
:2039A000E558002D03D0AD69E0184068A847B0BD38102020084880F3088800BF00BF00F06F
:2039C0009DF9002801D0FFF77FFE0020FEF766F90120FFF73BFFC04600802020B0B50025D0
:2039E0002A4603780D462C78002C02D06D1CA342F9D1002B03D0401C551CA342F0D01046E9
:203A0000B0BD0000054882210160054A42608160C2600448016102607047C04654804240D1
:203A200082000400DC80424080B5FFF72FFE0120C103044A116040031060034A1160106045
:203A400080BDC04680E200E000E100E030B514004C4325001C004443641905001000290015
:203A6000FFF750FE001904000D002100280030BDB0B5064C18342146FEF790F90546044823
:203A80002146FEF78BF94019B0BDC046500E202030400000B0B5024600201378002B0AD00F
:203AA0000C462578002D03D0641CAB42F9D102E0521C401CF1E7B0BDB0B504460020002BF5
:203AC00008D0D2B20D782570954204D0641C491C5B1EF7D1B0BD601CB0BD000080B50548C7
:203AE0000068C0B20B2804D103480068C0B2FEF74FFE80BD201010402411104006490A687A
:203B0000D20705D00A68D20702D00A68D207F6D1C2B28A617047C0460891104018B52023B3
:203B20009B1A04D8010000205B42994004E004009140DC402143904018BD000010B5012297
:203B4000120383180C789C604B7883508978014A815010BD0C1100000548042101601F2185
:203B6000416000218160016805220A430260704710E000E004480068C0B2012803D103486E
:203B80000178491C0170704720108640B5102020054A1368002B06D011461A4608328342A3
:203BA000F7D1806808607047480E2020B0B514460D460146286800F08BF828680019286013
:203BC0002046B0BD40B584B002AE0096FEF77EFC029A039B04B040BDC9B202788A4204D0B4
:203BE000002A01D0401CF8E70020704710B50122120383180C789C604978815010BD80B50C
:203C00000B4603214258C11D184600F061F880BD00214258091D002AFBD1081F801070478E
:203C200080B50A4603214158104600F025F880BD28680121C943084022680A407047000011
:203C40000B4611461A4680B5FFF7CFF880BD00228B5C8354521C002BFAD170470021425C73
:203C6000491C002AFBD1481E70470021425C491C002AFBD1481E70470A46002180B5FFF7F9
:203C8000B4F880BD80B501460820FDF7F7FE80BD811E091F00BFFCD2704702460B46204667
:203CA0002946FFE782B00094014C019410BD00BF8D1600000022304639462B4670470A6827
:203CC000531C0B6010707047004870479410202080B5FEF74CFC80BD80B5FFF70FFF80BDCB
:203CE00080B5FEF75BF880BD80B5FEF715FF80BD80B5FFF70DFE80BD5CE67047012070474B
:103D000000BFFEE70000000000000000000000000F
:203D10000080808080808080808090909090908080808080808080808080808080808080C3
:203D3000801804040404040404040404040404040402020202020202020202040404040477
:203D5000040443434343434341414141414141414141414141414141414141410404040495
:203D70000404232323232323212121212121212121212121212121212121212104040404B5
:203D9000800000000000000000000000000000000000000000000000000000000000000093
:203DB0000000000000000000000000000000000000000000000000000000000000000000F3
:203DD0000000000000000000000000000000000000000000000000000000000000000000D3
:203DF0000000000000000000000000000000000000000000000000000000000000000000B3
:203E1000000807272C2000000000000000000000000000000000F03F0000000000000040A1
:203E300000000000000008400000000000001040000000000000144000000000000018402E
:203E50000000000000001C40000000000000204000000000000022400000000000002440D0
:203E7000000000000000264000000000000028400000000000002A400000000000002C408E
:203E90000000000000002E4000000000000024400000000000005940000000000088C3401C
:203EB0000000000084D797410080E03779C34143176E05B5B5B89346F5F93FE9034F384DF6
:203ED000321D30F94877825A3CBF737FDD4F157553797374656D2072656164792C2077613E
:203EF0006974696E6720666F7220504944206F757470757420646174612E2E2E0D0052655A
:203F100063656976656420504944206F75747075743A206C6566743D25642C207269676892
:203F3000743D25640D0A004D313A252E32662C4D323A252E32662C4D333A252E32662C4D63
:203F5000343A252E32660D0A00496E76616C696420504944206F7574707574206461746192
:203F700020666F726D61740D00466F726D61743A20246C6566742C7269676874230D00006F
:203F9000020000000F2700000100000000000000000000002470776D3A25642C25642C2597
:203FB000642C25642300247370643A25642C25642C25642C256423002475706C6F61643A62
:203FD00025642C25642C25642300303132333435363738394142434445460030313233341F
:203FF000353637383961626364656600706C6561736520776169742E2E2E0D00000018004B
:204010000000003000000000180000000030000000001800000000300000040004000400C4
:104030000A002C000000000000000000000000004A
:20404000005500000F0112014001018F012202C01502030F01240440FF000004BF02017F5C
:204060007EFE013F7802004D2E0000EDFF330000C12F000019FF300000D529000035DF34F2
:204080000000412A0B9F40C00F83202000751DB100F11CBF02133F1E03022404A30C70006C
:2040A00031173F04FFF0000015270000FF3B0000213C0000020000004D06000040400000DE
:1040C000500E2020B4400000000820200000000016
:00000001FF
