:2000000000802020C5130000430F0000430F000000000000000000000000000000000000A4
:20002000000000000000000000000000430F00000000000000000000430F0000430F0000CA
:20004000430F0000430F0000430F0000430F0000430F0000430F0000430F0000430F000010
:2000600000000000430F0000430F00000000000000000000430F00005D1200009D1100006D
:20008000430F0000430F0000430F0000430F0000430F0000430F0000000000000000000074
:2000A000430F0000430F00000000000000000000430F000000000000430F0000430F0000A6
:2000C000F0B5FFB08EB0049306920646929802900025E84305908C913468204601F053F916
:2000E00021188B9503918C4200D3B5E00020879087A908738890059889902F46049D20787F
:20010000002800D1A9E0252805D0641C34600699A8477F1CF3E78B97601C306087AC20465D
:20012000314600F0A1F88CAA2046314600F0B9F831680A781346683B0120C341092B2BD898
:200140007B441B795B009F4404130A272727162727194B78879A682B19D1430204E04B78AE
:20016000879A6C2B10D103021A438792891C12E0879AC30204E0879A430301E0879A03039B
:2001800013438793491C06E0491C402301E0491C20231A4387920A784C1C346087A90A73B2
:2001A000732A1ED06E2A28D187992E4A1140202947D040293BD04203914238D0420291422F
:2001C0003AD0C202914205D0020391422FD0000281422CD1F8178C9904C98C9117605060CB
:2001E00033E087A80078400619D4009587A88CAA8BAB069900F015F927E007AD87A98CAA24
:20020000284600F065F9024628460699029B9847411C059D00D0C5198B95039917E000955C
:2002200087A88CAA8BAB069900F097F80DE08C9802C88C900F6008E08C9802C88C900F702E
:2002400003E08C9802C88C900F8003998B9D681C00D048E7059F00E02F4638467FB00EB077
:20026000F0BDC046603F000010B50A681378302B0FD0232B07D02B2B09D02D2B05D0202B64
:200280000ED1042306E0082304E0012302E0022300E0102304681C430460521C0A60E5E752
:2002A00010BDFEB516460D460446086802782A2A10D13068011D316000686060002805D535
:2002C0004042606020680121014321602868471C2F6017E00021303A092A08D84218531C8D
:2002E0002B60435C6F467B545278491CF3E76A460023535412784718002A03D0684600F049
:2003000085FE606038782E2826D1781C286079782A2908D13068011D31600068A060286825
:20032000401C2860FEBD00203039092908D839188A1C2A604A786B461A548978401CF3E7EA
:200340006A46002111541078002804D0684600F05DFEA060FEBDA160FEBDF0B587B01E4633
:200360000C9F13681C1D14601D68002D3BD0049106908468002C04D4284600F0F5FF8442BA
:2003800003D3284600F0F0FF044606984068A042039000DC20460146306801914018029692
:2003A000306005940398A0420EDD06980078C0070AD1059801990E1A0024B44204DA20205D
:2003C0000499B847641CF8E70026049C069805998E420BDA2868010A19D12D1DC0B22146C3
:2003E000B847761CF2E70020B84718E00599039A8A4214DD0078C00711D00198451A002448
:20040000AC420CDA20200499B847641CF8E70020C0430299086000F0CDFF5821016007B05A
:20042000F0BDF0B585B00C4606460A9D1068011D116000680490002844D00393B768002FCD
:2004400004D4049800F09FFF874203D3049800F09AFF074602967268BA42114600DC394669
:20046000039B18680091401818600192BA420FDD02980078C0070BD10098C01B03900026A1
:200480000398864204DA20202146A847761CF7E70026BE4205DA0498805D2146A847761CAF
:2004A000F7E70198B84210DD02980078C0070CD00098C61B0027B74207DA20202146A84719
:2004C0007F1CF8E700202146A84705B0F0BDC046F0B589B005920E4604467F208000271853
:2004E0004868039000250795FF210491FE3120222046019200F040FF3046089702977D700F
:20050000367B31466339152906903DD801228A40604B1A42069822D007A908AA059B00F0B8
:20052000BDF806980025067B012731466F390929059504D801228A4057490A423FD1582E64
:200540003DD0016802230B40079A002A27D008994A1E08922D220A705F425F412FE000290E
:2005600012D1059B1A68111D19601268D1B24D424D410499FC316118089102990A7002685A
:2005800002218A430260CEE7252E02D0582EC3D0CAE70020607025202070012078E0002BFC
:2005A00007D149070BD5089A511E08910199117005E0089A511E08912B211170002703994F
:2005C00003976518089B0178C907264608D10299491CC91A42689142264601DC691A4E1C3D
:2005E000591C04984300002730463A4600F025FE08900599002903D0411C0891077000E0F8
:200600000146A94206D8481E691A491C202200F0B3FE2F7006980078C00606D4311B2022B6
:20062000204600F0A9FE059D2EE0A642059D2BD0311B302720463A4600F09EFE069B079833
:200640004142414103980140012905D11878400702D43046214604E03078611C2070701C0A
:2006600037701A7B412A0CD0582A05D0612A08D0782A01D0702A07D11B781B0701D4612A43
:2006800002D142784A704770204600F07CFE401909B0F0BD4230240043020000F8B51446EB
:2006A0000F4605468068002804D4286810218843286001E00120A860287B1026582808D063
:2006C000782806D0702804D06F2801D1082600E00A262846194600F055F8AA68002A09D171
:2006E00002460A4306D12878000749D52B7B0020024612E02B7B642B03D1642300290BD530
:2007000004E0692B08D1002906D5692301223A60002240428A4100E00A4600941146324639
:2007200000F0B0F8A968884206DA401C21684A1E226030220A70F5E7287B582803D0782859
:2007400001D070280FD1297809070CD5702800D1782021684A1E226008702068411E21606A
:2007600030210170287B6F280AD12878000707D520684178302903D0411E21603021017010
:20078000F8BDC04610B5037B702B05D10868021D0A60006800226FE00068384A02400120CB
:2007A0004403A24222D0402A20D00402A24230D04402A24246D0C402A2422AD00403A24209
:2007C00014D0202A12D100221C46643C142C06D8A0402B4C204204D1212420423ED1582BFF
:2007E00049D10868031D0B60008845E000221C46643C142C06D8A040214C204204D121242C
:2008000020422BD1582B36D10868031D0B60006832E01A46643A142A06D89040184A1042DD
:2008200006D12122104203D10020582B024623D10868C21D072082431046083008601068F0
:20084000526819E000221C46643C142C0CD8A0400B4C20420AD12124204205D00868021D1E
:200860000A600068C21707E0582B04D10868031D0B60007800E01046114610BD603F000022
:2008800000081200FEB501920D460646582B01D0174800E0154800900898029030462843C6
:2008A00005D1029A1068411E116030210170019C3046284313D030462946224600F01AF80C
:2008C00007460D46224600F095FC301A0099085C029B19684A1E1A6008703E46E8E70298E3
:2008E000006800F050FD401EFEBDC0464D1500005E15000080B5102A06D0082A09D1C00846
:200900004A078018C90880BD00090A078018090980BD002904D1114600F058FB002180BDE9
:20092000002300F005FD80BDF0B5D3B0054602784018401E0378242A42D1232B40D10C4635
:2009400046A8322100F026FD14A8C82100F022FD032C00943BD3E61E0321304600F036FBFF
:20096000481C0328059000D10020022E00D3D9E001242146059A032A0BD107A8322100F080
:2009800009FDE4B2002C27D100223FE0891C801EF3D06A5C2C2A05D100226A54E2B246ABF9
:2009A0009954641C0128E8D06A1853782C2BEDD14B1C00265670E2B246AEB354641CE5E759
:2009C0006F4C7049204600F09BFB204633E007A8322100F0DFFC01246F1C46A88078069045
:2009E000651E0321284600F0F1FA481C00260328049600D004900390069838180590022D0F
:200A00001DD2039803284FD114A80278009B9A420BD114A802795A4C112A00D0ADE05C495E
:200A200007AA204600F06CFBCFE7554D5649284600F066FB284600F07FFB53B0F0BD04986E
:200A4000241A002614AD0BE014980699401A821E07A8059900F0B2FCF61C0C35B442D0D06D
:200A600046A8805D381800F0D1FA2860012E0AD114980699401A821E07A8059900F09EFCF2
:200A8000002E09D1E0E746A880194078381800F0BDFA6860002ED7D046A8801980783818E5
:200AA00000F0B4FAA860D7E7B40046A8801901900220801B03900498401E029000250DE018
:200AC00014980699401A821E07A8059900F076FCB61CAD1C08340498A84295D00398A842DB
:200AE00008D114980699401A821E07A8059900F065FC06E00198405D381800F087FA14A9A0
:200B000008510298A84200D17EE7701C0228D7D0019840194078381800F078FA14A909192A
:200B20004860D5E7011B891C06910124214605E0C91C069A5218012A00D11BE76E5C2C2E77
:200B400005D100266E54E6B246AFB955641C6E1877782C2F06D14F1C00227270E2B246AB21
:200B60009F54641CB2782C2AE2D18A1C0023B370E3B246AEF254641CDAE70449112321E74A
:200B800000002020D1140000FE1400001E1500003B15000010B526490A78012A0BD0002AB5
:200BA00045D1242843D1244824220270012008702049087010BD1F4A13781F4CE0545B1C4A
:200BC0001370232808D11D48012404701C48037000200870107018E0D8B232280FD300249F
:200BE0000C7014701448322100F0D4FB1548642100F0D0FB124804701048047010BD0F482C
:200C00000078002813D00E480378D9B20A4C2046FFF78AFE3221204600F0BCFB0948642185
:200C200000F0B8FB0648002101700448017010BD6A0020206B0020206C00202068002020FE
:200C40006900202000002020F0B58B4200D1824204D90B0002000021002040E0002B00D15D
:200C6000002A0CD10B00020000210020002B00D1002A01D0C943C04300F00FFB2FE01C00F4
:200C800015000B0002000CB4002126002F00FF19764102D2491C4029F9D100201E0017006C
:200CA000FF19764102D2401C4028F9D10E1A21002800320000F0E2FA0C0005000CBC00209B
:200CC0000021A34200D1AA4201D3521BA341404149416D08E7073D436408761EF1D5059FD4
:200CE000002F01D03A607B60F0BD002A49D084468B071CD1830722D1102A08D370B4103A46
:200D000078C978C0103AFBD270BC103238D0042A2CD3082A05D30C2A01D308C908C008C922
:200D200008C008C908C092072AD0920F22E00B780370491C401C521E22D08B07F7D1C307DF
:200D400014D18307D8D0121F12D308C903801B0C4380001D121FF8D20AE008C903701B0ABD
:200D600043701B0A83701B0AC370001D121FF4D2121D05D00B780370491C401C521EF9D147
:200D800060467047F8B5451C00780023082B32D02F78C2070CD16A780F241440E41C122C24
:200DA0000BD102242E57F4B2002E08D4EE1C0EE06D1C4A1C0F7011461AE0AE1C08E02E1D48
:200DC000ED7800957F252C40009DED012C1912343D0112095219094DAA420ED0D243002CCE
:200DE00005D08D5C4F1C0D70641E3946F7E7354640085B1CCAE72846C5E7F8BDFF0F0000A6
:200E000010B51549154C204600F09CFA1449204600F098F8134801680322D203914301602C
:200E20000169114A0A40911C016141690B220A4334218A434261416801221140436893430D
:200E40005918416009490B6894021C430C6001681143016010BDC046841500000080104000
:200E600070150000009110400000FFFF2890104010B51549154C204600F064FA144920460B
:200E800000F060F8134801680322D203914301600169114A0A4011320261416917220A4332
:200EA00028218A434261416801221140436893435918416009490B6894021C430C6001683A
:200EC0001143016010BDC04686150000002010407A150000003110400000FFFF28301040C9
:200EE0008446830706D0002A29D001700130013A8307F8D1042A1CD30906090E0B021943C9
:200F00000B041943082A10D30B00102A09D370B40F24161B22400C000D003AC0103EFCD811
:200F200070BC082A01D30AC0083A042A01D302C0043A002A03D0013A8154013AFCD26046B5
:200F40007047FEE770B511221302C218C4580125AC43C4500C888D7825438C882C43C558C8
:200F6000084E2E40084D2540AC19C4508879CB790343087A184351687E2399431840081804
:200F8000506070BDE798FDFF1867000010B5094809494160094A5160094B5960094C61604A
:200FA00009490160116019602160102000F0F8F910BDC04600080A40030000B100280A40B7
:200FC0000088104000281040010000261CB50A0017D000230124E407A04200D20400944217
:200FE00001D95200FBE790425B41904200D3801A914201D25208F6E7190002000800110025
:201000001CBD0100002000F07AF81CBD10B50E4902788B185B78401CDB06F9D400212D2A0D
:2010200004D02B2A02D0401E134600E00378303B092B04D80A244C431919401CF6E72D2AA9
:2010400000D14942084610BDD01300000C48002101600C48014608390A680323DB4313407B
:201060000B6001680122914301600168130299430160001F016812030A4302607047C04680
:2010800008030B4008010B4070B50A480A4C84420CD00A4D0A4EB54208D02A686968501CEA
:2010A00012789200A25890470835F4E700BF00BF70BDC0469C15000090150000AC15000063
:2010C000BC150000FCB4020C0B0CFF242402FF34204021400C00444315005D4306005E433E
:2010E0000F005743320C3B0CA818C01832043B040025A1186841C9186841FCBC704770477E
:2011000082B0F8B5069207930291019006A9039107480090074B02A801AAFEF7D1FF019972
:2011200000220A7004B080BC02BC02B00847C046D1120000AB130000002813D00178002910
:2011400010D0094A1368DB0705D01368DB0702D01368DB07F6D1431C916103D041780029D1
:201160001846EFD17047C04608911040074882218161074AC261C16706490A60812101607F
:2011800005480421016001637047C0463C80424082000400BC804240A0320A400948006804
:2011A000C0B20B280CD10848C1690268D20705D00268D20702D00268D207F6D1C9B281619F
:2011C0007047C0462090104008911040084880F3088800BF00BF00F0F7F8002801D0FFF7CA
:2011E00053FF002000F018F8012000F0EFF8C0460080202030B514004C4325001C0044436F
:201200006419050010002900FFF75CFF001904000D002100280030BD00F04EF800F064F8E0
:2012200000F06EF83224204600F038F8204600F035F8332000F032F8FEE7B0B504460020D8
:20124000002B08D0D2B20D782570954204D0641C491C5B1EF7D1B0BD601CB0BD80B5054844
:201260000068C0B20B2804D103480068C0B2FFF791FC80BD203010402431104018B5202352
:201280009B1A04D8010000205B42994004E004009140DC402143904018BD704705490A68D1
:2012A000D20705D00A68D20702D00A68D207F6D1886170470891104080B5FFF767FEFFF742
:2012C00055FFFFF7C3FEFFF79BFDFFF7D1FD80BDB0B514460D460146286800F06FF82868A4
:2012E000001928602046B0BD0120C00302490860024908607047C04680E200E000E100E070
:201300000120800302490860024908607047C04680E200E000E100E003228058002805D009
:20132000401E4A1C00230B701146F7E77047000040B584B002AE0096FFF786FC029A039B3E
:2013400004B040BD10B50122120383180C789C604978815010BD80B50B4603214258C11D43
:20136000184600F02BF880BD00214258091D002AFBD1081F801070470B4611461A4680B53D
:20138000FFF7AEFD80BD0021425C491C002AFBD1481E70470A46002180B5FFF7A1FD80BDC1
:2013A000811E091F00BFFCD270470A68531C0B6010707047004870476400202080B5FFF7D1
:1013C00094FC80BD02E770470120704700BFFEE734
:2013D00000808080808080808080909090909080808080808080808080808080808080802D
:2013F0008018040404040404040404040404040404020202020202020202020404040404E1
:201410000404434343434343414141414141414141414141414141414141414104040404FE
:2014300004042323232323232121212121212121212121212121212121212121040404041E
:201450008000000000000000000000000000000000000000000000000000000000000000FC
:2014700000000000000000000000000000000000000000000000000000000000000000005C
:2014900000000000000000000000000000000000000000000000000000000000000000003C
:2014B00000000000000000000000000000000000000000000000000000000000000000001C
:2014D0000070746F206572726F723A70746F5F686561643D307825303278202C2070746F3E
:2014F0005F7461696C3D3078253032780A0070746F5F6C656E206572726F723A2564202C9B
:2015100020646174615F6C656E3A25640A0070746F5F6964206572726F723A25642C206658
:20153000756E635F69643A25640A006C6963656E63655F7265633A272573270A0030313233
:2015500033343536373839414243444546003031323334353637383961626364656600000A
:201570000000180000000030000000001800000000300000040008000000000000000000BF
:20159000850D000057130000191300000200000032000000000100000F59FFF09C150000D6
:1015B0006C002020A4150000000020200000000086
:00000001FF
