:20000000008020200D250000C7120000C7120000000000000000000000000000000000003C
:20002000000000000000000000000000C71200000000000000000000C7120000C712000035
:20004000C7120000C7120000C7120000C7120000C7120000C7120000C7120000C7120000D8
:2000600000000000C7120000C71200000000000000000000C71200006D23000051220000F2
:20008000C7120000C7120000C7120000C7120000C7120000C712000000000000000000004A
:2000A000C7120000C71200000000000000000000C712000000000000C7120000C712000003
:2000C000F0B5FFB08EB0049306920646929802900025E84305908C913468204602F0E5F983
:2000E00021188B9503918C4200D3BBE00020879087A908738890059889902F46049D207879
:20010000002800D1AFE0252805D0641C34600699A8477F1CF3E78B97601C306087AC204657
:20012000314600F0A7F88CAA2046314600F0BFF8306801787A2925D0682919D06A2908D071
:200140006C290ED0742908D04C2922D1879980221BE087990122D20217E0879901225203EC
:2001600013E0427887996C2A64D10122120205E042788799682A60D101225202114387914B
:20018000801C05E08799012212030A438792401C0178441C346087A8017373291FD06E2992
:2001A00029D1879832490840202850D040283CD001214A03904238D04A02904242D0CA0242
:2001C000904205D00A0390422FD0090288422CD1F8178C9904C98C91176050603BE087A839
:2001E0000078400619D4009587A88CAA8BAB069900F01DF92FE007AD87A98CAA284600F0F8
:200200006DF9024628460699029B9847411C059D00D0C5198B9503991FE0009587A88CAA45
:200220008BAB069900F09FF815E08C9802C88C900F6010E0401C402201E0401C2022114373
:200240008791A5E78C9802C88C900F7003E08C9802C88C900F8003998B9D681C00D042E7B4
:20026000059F00E02F4638467FB00EB0F0BDC046603F000010B50A681378302B0FD0232B7E
:2002800007D02B2B09D02D2B05D0202B0ED1042306E0082304E0012302E0022300E01023A7
:2002A00004681C430460521C0A60E5E710BDFEB516460D460446086802782A2A10D130683B
:2002C000011D316000686060002805D54042606020680121014321602868471C2F6017E01B
:2002E0000021303A092A08D84218531C2B60435C6F467B545278491CF3E76A460023535466
:2003000012784718002A03D0684601F0D9FE606038782E2826D1781C286079782A2908D18B
:200320003068011D31600068A0602868401C2860FEBD00203039092908D839188A1C2A60C3
:200340004A786B461A548978401CF3E76A46002111541078002804D0684601F0B1FEA0607D
:20036000FEBDA160FEBDF0B587B01E460C9F13681C1D14601D68002D3BD00491069084681F
:20038000002C04D4284602F081F8844203D3284602F07CF8044606984068A042039000DC2F
:2003A000204601463068019140180296306005940398A0420EDD06980078C0070AD1059890
:2003C00001990E1A0024B44204DA20200499B847641CF8E70026049C069805998E420BDA71
:2003E0002868010A19D12D1DC0B22146B847761CF2E70020B84718E00599039A8A4214DDDC
:200400000078C00711D00198451A0024AC420CDA20200499B847641CF8E70020C0430299D3
:20042000086002F06BF85821016007B0F0BDF0B585B00C4606460A9D1068011D1160006833
:200440000490002844D00393B768002F04D4049802F02BF8874203D3049802F026F80746C7
:2004600002967268BA42114600DC3946039B18680091401818600192BA420FDD0298007850
:20048000C0070BD10098C01B039000260398864204DA20202146A847761CF7E70026BE4220
:2004A00005DA0498805D2146A847761CF7E70198B84210DD02980078C0070CD00098C61B70
:2004C0000027B74207DA20202146A8477F1CF8E700202146A84705B0F0BDC046F0B589B04F
:2004E00001920F460446FF210846FA30251878680290002607960391FE31202220460092C3
:2005000001F0CCFF7F20800006942118089104952E713D46387B0246613A172A2AD80123DC
:2005200093402C46B44D2B42254608D007A908AA2846019B00F066F900260596B3E0712520
:200540002B42254622D1022A14D1019B1868021D1A600068C2B2534253410593039AFC32A2
:20056000069B9A18089208702868022188432860002698E001464539032907D3252860D02A
:20058000412803D058280596D0D08DE0019A1068C11D0720814308460830106005C9D14343
:2005A0002F7B4900490D0BD17B3F944911400143049C2CD01920C1438F4234D36E2033E098
:2005C000002A01D4114602E00121C9075140D60F002205923A46413A062A0BD9613F062FDE
:2005E00061D8C0467F443F797F00BF440B5C5C5C3B3631007A441279520097440354545489
:20060000332E290008AB2A4600F096FB4BE0002311461A46059301F077FB1921C9438F4295
:2006200025D3662224E04E20E0708F4201D3612100E04121A17008946070002005900226B5
:2006400031E0002006994870252008700120A1E008AB2A4600F080FC25E008AB2A4601F00B
:2006600005FC20E008AB2A4600F0CCFE1BE04622E2708F4201D36E2200E04E22A2708F427F
:2006800001D3692100E0492161703F21C900069A51180891002803D02D202070042602E032
:2006A0002B2020700326287B012701466F39092904D801228A4052490A4201D158286BD10C
:2006C000049B029C04972946069F3D1908980C460978C90707D1191D091A62689142069F22
:2006E00001DC691A4F1C411C0398430000263846324601F02AFE08900599002903D0411C30
:200700000891067000E00146A94206D8481E691A491C202201F0C2FE2E702078C00605D4C4
:200720000698391A202201F0B9FE2EE0069887422BD00698391A3026324601F0AFFE079872
:200740004142414104980140012905D12078400702D43846069905E03878069A511C1070C3
:20076000781C3E70227B412A0CD0582A05D0612A08D0782A01D0702A07D123781B0701D422
:20078000612A02D142784A704670069801F08DFE0599401809B0F0BD002E09D0012E049B86
:2007A000029C8FD10120079029680220084007E0079A296802200840002A09D0049B029CC5
:2007C00008994A1E08922D220A704742474179E70028049B029C08D1480700D472E70898E2
:2007E000411E0891009901706CE70898411E08912B210170002765E708C19000FFFF0F0076
:2008000043020000F8B514460F4605468068002804D4286810218843286001E00120A860E6
:20082000287B1026582808D0782806D0702804D06F2801D1082600E00A262846194600F041
:2008400055F8AA68002A09D102460A4306D12878000749D52B7B0020024612E02B7B642BCF
:2008600003D1642300290BD504E0692B08D1002906D5692301223A60002240428A4100E027
:200880000A4600941146324600F0B0F8A968884206DA401C21684A1E226030220A70F5E7DB
:2008A000287B582803D0782801D070280FD1297809070CD5702800D1782021684A1E226053
:2008C00008702068411E216030210170287B6F280AD12878000707D520684178302903D071
:2008E000411E216030210170F8BDC04610B5037B702B05D10868021D0A60006800226FE015
:200900000068384A024001204403A24222D0402A20D00402A24230D04402A24246D0C40223
:20092000A2422AD00403A24214D0202A12D100221C46643C142C06D8A0402B4C204204D10D
:20094000212420423ED1582B49D10868031D0B60008845E000221C46643C142C06D8A0407A
:20096000214C204204D1212420422BD1582B36D10868031D0B60006832E01A46643A142AF5
:2009800006D89040184A104206D12122104203D10020582B024623D10868C21D072082439B
:2009A0001046083008601068526819E000221C46643C142C0CD8A0400B4C20420AD1212415
:2009C000204205D00868021D0A600068C21707E0582B04D10868031D0B60007800E01046BE
:2009E000114610BD603F000000081200FEB501920D460646582B01D0174800E015480090B5
:200A0000089802903046284305D1029A1068411E116030210170019C3046284313D0304670
:200A20002946224600F01AF807460D46224601F069FC301A0099085C029B19684A1E1A6038
:200A400008703E46E8E70298006801F02EFD401EFEBDC046C4260000D526000080B5102A3A
:200A600006D0082A09D1C0084A078018C90880BD00090A078018090980BD002904D111467F
:200A800001F0DEFA002180BD002301F0D9FC80BDF0B5D9B0054602784018401E0378242A97
:200AA00042D1232B40D10C464CA8322101F004FD1AA8C82101F000FD032C06943BD3E61EC5
:200AC0000321304601F0BCFA481C03280B9000D10020022E00D3F4E0012421460B9A032A85
:200AE0000BD10DA8322101F0E7FCE4B2002C27D1002280E0891C801EF3D06A5C2C2A05D10A
:200B000000226A54E2B24CAB9954641C0128E8D06A1853782C2BEDD14B1C00265670E2B2D3
:200B20004CAEB354641CE5E77D4C7E49204601F041FB204689E00DA8322101F0BDFC01249F
:200B4000681C0C904CA88579C679601E03210A9001F076FA481C00270328099700D00990E8
:200B600008900C9840190B90761B0A9802283DD30998201A0A9000201AAF09E00DA80B9938
:200B8000324601F0BFFC0C37681C0A9988422CD00446062805D10DA80B99324601F0B2FC43
:200BA00006E04CA8005D0C99081801F089FA3860651C062D05D10DA80B99324601F0A2FC43
:200BC00007E04CA8001940780C99081801F078FA78606D1C062DD1D04CA8001980780C9962
:200BE000081801F06DFAB860CDE7E71C089803282FD11AA80278069B9A4220D11AA80279FC
:200C00000A2A00D088E01CAFF0CF219801F050FB0022474B00F086FC00F05AFF01F030FA5F
:200C20000DAA009601970292049005913C4E4149304622462B4601F0BDFA304605E0384D26
:200C40003949284601F0B6FA284601F0CFFA59B0F0BDB8001AA90C184CA8C01907900620FC
:200C6000C01B0A900998401E089000250AE00DA80B99324601F046FCBF1CAD1C08340998D4
:200C8000A842B6D00A98A84205D10DA80B99324601F038FC06E00798405D0C99081801F0B4
:200CA0000FFA20600898A842A3D0781C0628DED00798401940780C99081801F001FA60601D
:200CC000DAE7011B891C0C910124214605E0C91C0C9A5218012A00D100E76E5C2C2E05D1B2
:200CE00000266E54E6B24CAFB955641C6E1877782C2F06D14F1C00227270E2B24CAB9F5457
:200D0000641CB2782C2AE2D18A1C0023B370E3B24CAEF254641CDAE7014C04490A2305E76B
:200D2000000020205A26000087260000A72600000000594021260000F0B5A5B0049308926E
:200D40000E46074600240A947E4D22462B4600F0EFFF002813D100247B4D38463146224659
:200D60002B4600F0DBFF002809D1002238463146134600F0BFFF00283C46354607D10AAA67
:200D80002046294601F018F80A98401E0A900899087B0BAE412801D06D4800E06B480990EB
:200DA000886801903020039030700022079220462946134600F0A8FF01210028029101D001
:200DC000C8074540771C20462946079A134600F091FF00280DD124AA2046294600F0ECFF59
:200DE000249801210A1A2046294600F093FC04460D462046294601F0B9F806463946059722
:200E000001F008F80690304601F052FA01F05FFB04460D460198471C20D305980699461827
:200E2000002220462946134600F064FF002848D1002220462946474B00F0FAFB04460D46C3
:200E400001F094F80999095C771C317001F030FA01F03DFB04460D463E46E1E70BA806995B
:200E60004618002F16D07F1E002220462946394B00F0DEFB04460D4601F078F80999095C19
:200E80003246761C517001F013FA01F020FB04460D46E6E73178099C204601F0DBFA001B7E
:200EA00008280EDB0196741E089D079F099E2178304601F0CFFA801B0E2805DD2770641E69
:200EC000F5E7089D079F04E00999081840782070019E37700A98297B4129049C01D0702105
:200EE00000E05021069E059F224601F016F8AA68501C04D1384601F0D8FA421EAA60384676
:200F00003146234601F0BCF9A8680028029A02D128680007C20F38463146234600F0B6FE3A
:200F2000287B412801D0782000E0582021684A1E226008702068411E21600399017025B0AF
:200F4000F0BDC0460000F07F0000F0FFC4260000D526000000003040F0B5A3B003930F4648
:200F6000044604929168002903D0002904D5062100E001210498816007910AA830210891C0
:200F800001700025204639462A462B4600F0BCFE01210028059101D0C8074740624E20462E
:200FA0003946604A334600F0CDFE002809D00022204639465E4B00F0B5FA04460F466D1C5C
:200FC000EDE75A4E0022204639460992134600F091FE002811D1002220463946334600F0A1
:200FE00093FE002809D0002220463946504B00F01FFB04460F466D1EE4E702950AA8451C14
:201000002046394600F0B2FF0695294600F002FF07998842019004DD481C0AA90A18085CD6
:201020001FE0C9430E180AA90D18681C07902046394600F09BFF01F03BF902460B462046F9
:20104000394600F077F80022394B00F0F1FA04460F4600F08BFF079A30306870761C154652
:20106000E3D3C0B23528039E049F029B099D0FD31446501E0178491CCAB201703A2A03D3B5
:2010800030210170401EF5E70AA98842224640D00198C41815700220C043844202DBB8687D
:2010A000844207DD601E397B891EC9B2324600F034FF0124069801F0F8F9401E0599A04214
:2010C0001ADB0028089A01D4069A125C1346303B5D1EAB41C9431943C90705D13978090774
:2010E00002D40025059905E031684B1E33600A7001250021401EE2E73868082202402A437C
:20110000501E824106982146334600F0BFFD23B0F0BD501E002101700198C018441C0AA871
:201120000690B8E70000C0FFFFFFDF410000F03F00002440FCB40124E407634002E0FCB415
:201140000124E40708B41D03ED08D60D354356025F007F0D06D12C00344300D0AEE001B087
:20116000FCBC7047A408254307242402FF34A74205D10020190D090501B0FCBC7047002B0A
:2011800003D50024A61BAC4125000B03DB08C20D134342024800400D07D11C00144300D076
:2011A0008CE00EBC1000F0BC704701246407234307242402FF34A04205D10020090D090510
:2011C00001B0FCBC7047002903D50024A21A9C412300C11B08D51C002B00250014003200A3
:2011E00026000024611A3800362925D502B4393949420C00203C03D22F008F40374301E050
:201200003700A740002F01D040210E4302BC20290BD500290ED04C42203420B4A5402C0049
:2012200020BC0D41CE40361904E000292E000D4120390E4192196B411C0014433ED00024FA
:20124000002B04D5012400218A1A99410B00401E52005B41FBD50121890215000D400CD0B4
:20126000521800277B4101D3401C0BE00721C90115000D4001D189008A43072109028A438A
:2012800052005B41801C19DD07210902FF31884209D30EBC0020C90F0902FF31C900C91D19
:2012A0000905F0BC7047190B00050143E40721431805120B104301B0FCBC70470021002013
:2012C00001B0FCBC7047FEE7F0B587B01D4616463024059004700027104619463A463B4634
:2012E00000F012FD0028019402D00120C00745400D9804900C9803903F4C304629463D4A8C
:20130000234600F01FFD002809D00022304629463B4B00F007F906460D467F1CEDE705982F
:20132000441C0022304629460692134600F0E2FC002811D1002230462946304B00F0E4FC2B
:20134000002809D00022304629462D4B00F070F906460D467F1EE4E70398C0190390304630
:20136000294600F003FE214600F054FD02942418C019049908600398471C012F1ADB30461C
:20138000294600F0F3FD00F093FF02460B4630462946FFF7CFFE0022194B00F049F9064637
:2013A0000D4600F0E3FD3030611C20707F1E0C46E5D100E02146481E0278352A0DD3891EEB
:2013C000019C0A78521CD3B20A703A2B02D30C70491EF6E7059A914204D006990170029897
:2013E00007B0F0BD0699017004990868401C08600598F5E70000C0FFFFFFDF410000F03F23
:2014000000002440F0B5A1B0049305469068002801D5062090600290039200243D4F28463F
:20142000224606913B4600F083FC06990028264614D10026384F284632463B4600F06EFC37
:20144000069900280AD1002228460592134600F051FC069B00282E461F4622D12F4D01F02B
:2014600043F800F051FC002809D00022304639462B4B00F0DDF806460F46641EEFE7284D33
:2014800001F032F800F054FC002807D001F02CF800F048F806460F46641CF1E735463B46B8
:2014A000059407A802990091019008A82A46FFF70BFF0446079D022D0DD1059D6D1C20467B
:2014C00000F0F3FF2018401E0021017028460125049E039F02E0049E039F0598397B32463B
:2014E00000F01BFDBA6820462946334600F0C8FE204600F0DAFF854203D138680007C20F7C
:2015000000E0012220462946334600F0BFFB21B0F0BDC0460000F07F0000F0FF0000F03FBF
:2015200000002440FCB40C005C40E40FE40710B41D032D0B56006D415F007F0D73D001249E
:201540006405254307242402FF34A74261D00B031B0B42005B414800400D64D001246405B3
:20156000234307242402FF34A04252D0C01B002100273624AB4200D1B24204D37F4149412D
:20158000921BAB4101E07F414941641E06D0002B01D1002A02D052005B41EBE7202C07D251
:2015A000162C0AD33900A7402026361BF1400BE0203C3900A140002706E0A1402026361B3E
:2015C0003D00F5402943A74001246405214202D17F004941401E00247F1C61410124A405EC
:2015E000214202D0401CA14301E06408A14303242402FF34001916DD2419A04209D8CC07E6
:201600004908000501437808204310BC2143FCBC704702BC0020C90F0902FF21C900C91D1E
:201620000905FCBC70470021002001B0FCBC7047FCB50C005C40E40FE40710B4DD02540D91
:201640002543D6025F007F0D60D00124E407254307242402FF34A74250D0CB02440D2343A6
:20166000C2024800400D51D00124E407234307242402FF34A04241D0C01901B41800290034
:2016800000F07AFD0F0001B41800310000F074FD03000C001000310000F06EFD06001000B4
:2016A000290000F069FD05007618002202BC01BC55415141A419554151418024A4005B19B2
:2016C0005141FF18514100D564003F19514102D47F00494100E0401C03242402FF34001BF6
:2016E00014DD2419A04209D80305F80A4C0520434900090B194310BC2143FCBD0020FF2159
:20170000C900C91D090510BC2143FCBD0021002001B0FCBDF8B515462A4E0A0D771C3A40D4
:20172000294B9A4213D00C46002A18D10122D2079443044344D00022244BFFF779FF0C4692
:2017400023498D4208DC234A234B214636E002460B46FFF7F4FCF8BD220D3A40363A51195B
:20176000B1420ADD00F0CAFE222101600120C00704401D4821180020F8BD012904DB174A2A
:20178000144009052143F8BD3522D24391420CDC00F0B4FE2221016012488542E6DA01205F
:2017A000C007044000202146F8BD0C4A144009051B225205891821430022094BFFF738FFEE
:2017C000F8BDC046FE070000FF07000000005043AF3CFFFF59F3F8C21F6EA501FFFF0F8001
:2017E0000000903C51C300000000F07F10B526490A78012A0BD0002A45D1242843D12448D2
:2018000024220270012008702049087010BD1F4A13781F4CE0545B1C1370232808D11D48B3
:20182000012404701C48037000200870107018E0D8B232280FD300240C701470144832218F
:2018400000F03AFE1548642100F036FE124804701048047010BD0F480078002813D00E48C3
:201860000378D9B20A4C2046FFF712F93221204600F022FE0948642100F01EFE064800218B
:2018800001700448017010BD6A0020206B0020206C002020680020206900202000002020BB
:2018A000F0B58B4200D1824204D90B0002000021002040E0002B00D1002A0CD10B000200C6
:2018C00000210020002B00D1002A01D0C943C04300F071FB2FE01C0015000B0002000CB458
:2018E000002126002F00FF19764102D2491C4029F9D100201E001700FF19764102D2401CE3
:201900004028F9D10E1A21002800320000F03EFD0C0005000CBC00200021A34200D1AA420B
:2019200001D3521BA341404149416D08E7073D436408761EF1D5059F002F01D03A607B60B5
:20194000F0BD002A49D084468B071CD1830722D1102A08D370B4103A78C978C0103AFBD2BE
:2019600070BC103238D0042A2CD3082A05D30C2A01D308C908C008C908C008C908C092074C
:201980002AD0920F22E00B780370491C401C521E22D08B07F7D1C30714D18307D8D0121F25
:2019A00012D308C903801B0C4380001D121FF8D20AE008C903701B0A43701B0A83701B0AA9
:2019C000C370001D121FF4D2121D05D00B780370491C401C521EF9D160467047F8B5451C60
:2019E00000780023082B32D02F78C2070CD16A780F241440E41C122C0BD102242E57F4B2F6
:201A0000002E08D4EE1C0EE06D1C4A1C0F7011461AE0AE1C08E02E1DED7800957F252C40FE
:201A2000009DED012C1912343D0112095219094DAA420ED0D243002C05D08D5C4F1C0D70C5
:201A4000641E3946F7E7354640085B1CCAE72846C5E7F8BDFF0F0000FEB502930F46194DDC
:201A60000024E143184E00973740019043422B46BB4101D20C4623E0084602990E40534233
:201A8000B54101D204461BE0134601990B433E431E43029D009E13D02B46334004D401999F
:201AA0008B1A3346AB4103E00199531A2B46B341044605DB51406E400E43701E8641344644
:201AC0002046FEBD0000F07FFFFFFF7F012070470CB41B4B4A00D21A1BD2000D0A0310436C
:201AE00001221202801802D3400812038918400A002902D50122D20710434900490D3822B2
:201B00001201891A0CD4FF290DD2C90508430CBC7047DB431A40024305D0D8430CBC704764
:201B200000200CBC7047C90FC907FF20C00508430CBC7047C046C046C046C046C046C0468C
:201B40000000E0FF10B51549154C204600F08CFC1449204600F030FA134801680322D203A9
:201B6000914301600169114A0A40911C016141690B220A4334218A4342614168012211400C
:201B8000436893435918416009490B6894021C430C6001681143016010BDC046FA2600007B
:201BA00000801040E6260000009110400000FFFF2890104010B51549154C204600F054FC38
:201BC0001449204600F0F8F9134801680322D203914301600169114A0A401132026141690F
:201BE00017220A4328218A434261416801221140436893435918416009490B6894021C433C
:201C00000C6001681143016010BDC046FC26000000201040F0260000003110400000FFFF40
:201C200028301040F8B50446164F174D0E462E400120009464423C46B4411AD31D405442C8
:201C4000AF4116D31046009C20433543054311D00020C0431C460C400ED4009CA41A0C4656
:201C60009C4106DB0098504059400143481E81410846F8BD0020F8BD009C141B1C468C41A7
:201C8000F0DAF6E70000F07FFFFFFF7FF8B51C4617460E46054600F008FC0021012E03DB85
:201CA000B04201DBA919491E002F04D02268531E23602E2313703246824206DD23685F1EB1
:201CC000276030271F70521EF6E7B04200DB3046012808DBA9420BD308782268531E236034
:201CE0001070491EF6E72068411E216030210170F8BD704710B5FFF795FF002801D0002022
:201D000010BD012010BDC04610B5FFF78BFF002801DB002010BD012010BDC04610B5FFF71D
:201D200081FF002801DD002010BD012010BDC04610B5FFF791FE002801DA002010BD0120E1
:201D400010BDC04610B5FFF787FE002801DC002010BD012010BD8446830706D0002A29D043
:201D600001700130013A8307F8D1042A1CD30906090E0B0219430B041943082A10D30B00FC
:201D8000102A09D370B40F24161B22400C000D003AC0103EFCD870BC082A01D30AC0083AD0
:201DA000042A01D302C0043A002A03D0013A8154013AFCD26046704770B514460F4D0B4682
:201DC0002B40002222600E4EB34215D81E46064312D01E0D07D100220A4BFFF729FC0D4045
:201DE0003522D2432B461B0D9A18074BD2182260064A0A400649511870BDC046FFFFFF7F6D
:201E0000FFFFEF7F0000504302FCFFFFFFFF0F800000E03FF0B587B00191064602AD002092
:201E2000E874123537460A243846214600F04AF84443391BCA175140891A30312970093713
:201E40006D1E122F0746EED8002E01D46D1C01E02D20287002A8441B224614320198294692
:201E600000F050FB1334204607B0F0BDF0B5FFB086B01C4615460246A868002801D5062053
:201E8000A8602368039304AB0090019305A80B46FFF71AFA0646049FAA683946234600F065
:201EA000EFF920680399814201D0012202E028680007C20F304639462346FFF7E7FE7FB0AD
:201EC00006B0F0BD1CB5002922D04C08002900D5494242105440002800D5404200230A0044
:201EE000904201D95200FBE790425B41904200D3801A914201D25208F6E71900002C00D55E
:201F00004042640000D549420200080011001CBD01000020FFF7EDFE1CBD7CB515460C46CE
:201F20000646C01731464140081A009200210A226423FEF75BFD30460930122808D8DF20E9
:201F40002040502804D02868411E296030210170002E01D42B2000E02D2029684A1E2A609D
:201F600008702868411E296004707CBD0CB54A00520D03231B02FF33D21A13D31F239A1A1D
:201F800012D98E46C9020123DB071943D1400B2A02D21532D04001437346002B00D549425C
:201FA00008000CBD00200CBD0B000120C007002B00D401380CBD704770B511221302C21875
:201FC000C4580125AC43C4500C888D7825438C882C43C558084E2E40084D2540AC19C450C4
:201FE0008879CB790343087A184351687E23994318400818506070BDE798FDFF18670000F4
:2020000010B5094809494160094A5160094B5960094C616009490160116019602160102042
:2020200000F050FA10BDC04600080A40030000B100280A40008810400028104001000026A4
:202040001CB50A0017D000230124E407A04200D20400944201D95200FBE790425B419042AF
:2020600000D3801A914201D25208F6E719000200080011001CBD01000020FFF73AFE1CBDE1
:2020800008B443001B0E0FD0FF2B11D00721C9015B18C10FC9020B43010048074902090B31
:2020A0001B05194308BC70470021002008BC704701004002C90DC900C91D090508BC70471C
:2020C00010B50E4902788B185B78401CDB06F9D400212D2A04D02B2A02D0401E134600E0E0
:2020E0000378303B092B04D80A244C431919401CF6E72D2A00D14942084610BD20250000AF
:202100000C48002101600C48014608390A680323DB4313400B60016801229143016001686F
:20212000130299430160001F016812030A4302607047C04608030B4008010B4070B50A4823
:202140000A4C84420CD00A4D0A4EB54208D02A686968501C12789200A25890470835F4E735
:2021600000BF00BF70BDC0460C270000002700001C2700002C270000FCB4020C0B0CFF24C6
:202180002402FF34204021400C00444315005D4306005E430F005743320C3B0CA818C01870
:2021A00032043B040025A1186841C9186841FCBC7047000082B0F8B50692079302910190F5
:2021C00006A9039107480090074B02A801AAFDF777FF019900220A7004B080BC02BC02B036
:2021E0000847C046E1230000F3240000002813D00178002910D0094A1368DB0705D01368E2
:20220000DB0702D01368DB07F6D1431C916103D0417800291846EFD17047C046089110401C
:20222000074882218161074AC261C16706490A608121016005480421016001637047C0467E
:202240003C80424082000400BC804240A0320A4009480068C0B20B280CD10848C1690268C1
:20226000D20705D00268D20702D00268D207F6D1C9B281617047C04620901040089110408E
:20228000F8B51C4615460646571800F00EF9711E012D0CDB3022012F02DB874200DCCA5D53
:2022A00023685E1E26601A707F1E6D1EF0E7F8BD04B40422002802D1002104BC704701D50C
:2022C0000832404212021F320100521E4900FCD30805090B1205114304BC7047084880F38E
:2022E000088800BF00BFFFF7F1FB002801D0FFF725FF002000F018F8012000F009F9C046A2
:202300000080202030B514004C4325001C0044436419050010002900FFF72EFF00190400B2
:202320000D002100280030BD00F04EF800F064F800F06EF83224204600F038F8204600F050
:2023400035F8332000F032F8FEE7B0B504460020002B08D0D2B20D782570954204D0641C63
:20236000491C5B1EF7D1B0BD601CB0BD80B505480068C0B20B2804D103480068C0B2FFF7E2
:2023800035FA80BD203010402431104018B520239B1A04D8010000205B42994004E004006C
:2023A0009140DC402143904018BD000005490A68D20705D00A68D20702D00A68D207F6D18A
:2023C000886170470891104080B5FFF719FEFFF727FFFFF795FEFFF7B5FBFFF7EBFB80BDCE
:2023E000B0B514460D460146286800F08BF82868001928602046B0BD0120C00302490860E6
:20240000024908607047C04680E200E000E100E00120800302490860024908607047C04682
:2024200080E200E000E100E003228058002805D0401E4A1C00230B701146F7E77047000051
:2024400040B584B002AE0096FFF72AFA029A039B04B040BDC9B202788A4204D0002A01D078
:20246000401CF8E70020704710B50122120383180C789C604978815010BD80B50B46032129
:202480004258C11D184600F03DF880BD00214258091D002AFBD1081F801070470B46114617
:2024A0001A4680B5FFF757FC80BD0021425C491C002AFBD1481E70470A46002180B5FFF72E
:2024C0004AFC80BD811E091F00BFFCD2704702460B4620462946FFE782B00094014C019472
:2024E00010BD00BF351100000022304639462B4670470A68531C0B60107070470048704749
:202500006400202080B5FFF71CFA80BDE6E6704700BFFEE700000000000000000000000072
:202520000080808080808080808090909090908080808080808080808080808080808080CB
:2025400080180404040404040404040404040404040202020202020202020204040404047F
:2025600004044343434343434141414141414141414141414141414141414141040404049D
:202580000404232323232323212121212121212121212121212121212121212104040404BD
:2025A00080000000000000000000000000000000000000000000000000000000000000009B
:2025C0000000000000000000000000000000000000000000000000000000000000000000FB
:2025E0000000000000000000000000000000000000000000000000000000000000000000DB
:202600000000000000000000000000000000000000000000000000000000000000000000BA
:202620000066616C6C646F776E3A783A25642C20793A25642C20773A25642C20683A256449
:202640002C2073746174653A272573272C2073636F72653A252E32660A0070746F2065720C
:20266000726F723A70746F5F686561643D307825303278202C2070746F5F7461696C3D3070
:2026800078253032780A0070746F5F6C656E206572726F723A2564202C20646174615F6CEA
:2026A000656E3A25640A0070746F5F6964206572726F723A25642C2066756E635F69643A90
:2026C00025640A003031323334353637383941424344454600303132333435363738396157
:2026E00062636465660000001800000000300000000018000000003000000400080000004A
:20270000DD1900007B240000292400000200000032000000000100000F59FFF00C27000018
:102720006C00202014270000000020200000000082
:00000001FF
