:020000040800F2
:100000007004002005010008A70400089F040008F0
:10001000A304000883030008CB0D000800000000C3
:10002000000000000000000000000000B50800080B
:10003000870300080000000019050008C90900082E
:100040001F0100081F0100081F0100081F01000810
:100050001F0100081F0100081F0100081F01000800
:100060001F0100081F0100081F0100081F010008F0
:100070001F0100081F0100081F0100081F010008E0
:100080001F0100081F0100081F0100081F010008D0
:100090001F0100081F0100081F0100081F010008C0
:1000A0001F0100081F0100081F0100081F010008B0
:1000B0001F0100081F0100081F0100081F010008A0
:1000C0001F0100081F0100081F0100081F01000890
:1000D0001F0100082D0A0008290B00081F01000855
:1000E0001F0100081F0100081F010008DFF810D0E1
:1000F00000F0B4F800480047E1120008AFF30080B8
:10010000700400200648804706480047FEE7FEE7E7
:10011000FEE7FEE7FEE7FEE7FEE7FEE7FEE7FEE7B7
:10012000CD090008ED00000840EA01039B0703D059
:1001300009E008C9121F08C0042AFAD203E011F826
:10014000013B00F8013B521EF9D27047D2B201E0E8
:1001500000F8012B491EFBD270470022F6E710B5CC
:1001600013460A4604461946FFF7F0FF204610BD25
:1001700070B5064600F03CFE046805460A220021E0
:10018000304600F033F82C6070BD2DE9F05F054675
:10019000002092469B4688460646814640241BE046
:1001A000284641464746224600F079F853465A46CB
:1001B000C01A914110D311461846224600F060F84B
:1001C0002D1A67EB01084F4622460120002100F05E
:1001D00057F817EB00094E41201EA4F10104DFDCA3
:1001E000484631462A464346BDE8F09F2DE9F04790
:1001F00091460F4680460446002614F8015B2DB157
:1002000000F05EF80068405DC007F6D12B2D02D0EB
:100210002D2D18D0641E4A463946204600F054F869
:1002200027B13968A14201D1C7F8008071054FF0AC
:1002300002040BD54042002803DD00F0D9FD046024
:10024000A007BDE8F08746F48066E4E70028F8DA06
:1002500000F0CEFD04606FF00040F2E7064C074D61
:1002600006E0E06840F0010394E807009847103486
:10027000AC42F6D3FFF73EFF88130008A81300082E
:10028000202A04DB203A00FA02F100207047914056
:10029000C2F1200320FA03F3194390407047202A4B
:1002A00004DB203A21FA02F00021704721FA02F320
:1002B000D040C2F120029140084319467047000027
:1002C00000487047841300082DE9F05F82460078EB
:1002D000002715468B460AF10104B946302801D0A3
:1002E0009DB113E014F8010B0127782803D058289A
:1002F00001D045B10AE00DB1102D07D1002710251E
:1003000014F8010B02E0082500E00A250026B0469B
:100310000EE005FB080005FB06F1012701EB104686
:100320001FFA80F8B6F5803F00D3B94614F8010BE8
:10033000294600F018F80028EBDABBF1000F05D0D1
:100340000FB1641E00E05446CBF80040B9F1000F35
:1003500006D000F04DFD02210160C81EBDE8F09FEF
:1003600048EA0640FAE73A2800D2303820F0200266
:10037000412A01D3A2F13700884201D34FF0FF3068
:10038000704700BFFEE770472DE9F04102460025A7
:100390000026002000230024002791F803C00CF061
:1003A0000F0591F803C00CF0100CBCF1000F03D046
:1003B00091F802C04CEA050591F800C0BCF1000FAD
:1003C00031D0146800202BE04FF0010C0CFA00F340
:1003D000B1F800C00CEA03069E4220D183004FF022
:1003E0000F0C0CFA03F7BC4305FA03FC4CEA0404B7
:1003F00091F803C0BCF1280F06D14FF0010C0CFAA4
:1004000000FCC2F814C00AE091F803C0BCF1480F28
:1004100005D14FF0010C0CFA00FCC2F810C0401CD2
:100420000828D1D31460B1F800C0BCF1FF0F34DD4F
:10043000546800202EE000F1080C4FF0010808FA83
:100440000CF3B1F800C00CEA03069E4221D18300F0
:100450004FF00F0C0CFA03F7BC4305FA03FC4CEA0F
:10046000040491F803C0BCF1280F05D100F1080C79
:1004700008FA0CF8C2F8148091F803C0BCF1480FD8
:1004800007D100F1080C4FF0010808FA0CF8C2F887
:100490001080401C0828CED35460BDE8F08100BF16
:1004A000FEE700BFFEE7704770B5002100230F2272
:1004B000C47804B3154C246804F4E064C4F5E06423
:1004C000210AC1F10403CA40447804FA03F1847894
:1004D0001440214309010E4C0678A155047804F01C
:1004E0001F050124AC4005786D11AD0005F1E02534
:1004F000C5F8004109E0047804F01F050124AC4070
:10050000044D0678761145F8264070BD0CED00E0EC
:1005100000E400E080E100E0704710B504462046AA
:10052000FFF726FE10BD0000002004E00021064A6F
:100530001154411CC8B23228F8DB0020034908706E
:100540000349087070470000380000202F00002089
:100550002E0000202DE9F04FD3B005460E4695F849
:1005600000A0701E15F800B0BAF1240F02D1BBF143
:10057000230F07D05A46514635A000F029FC53B04E
:10058000BDE8F08F0127342146A8FFF7E6FD0024DF
:10059000C82114A8FFF7E1FD342107A8FFF7DDFD0E
:1005A000012409E0285D2C2805D10020285546A902
:1005B000CC55781CC7B2641C701EA042F2DC00242B
:1005C00018E0062C0CD146AB1B5D1498C01A821E95
:1005D00046A8005D2844411C07A8FFF7A5FD08E0D8
:1005E00046A9095D2944481CFFF797FF14A941F863
:1005F0002400641CBC42E4DB149800F0FF08B04502
:1006000005D0324641461EA000F0E2FBB7E7159840
:1006100000F0FF09B9F1020F05D00222494620A0DF
:1006200000F0D6FBABE7169806901798059018983F
:1006300004901998039007A90398CDE9000120A020
:10064000DDE90432069900F0C3FB00BF97E7000024
:1006500070746F206572726F723A70746F5F686544
:1006600061643D307825303278202C2070746F5FC3
:100670007461696C3D3078253032780A00000000E2
:1006800070746F5F6C656E206572726F723A25646C
:10069000202C20646174615F6C656E3A25640A00E9
:1006A00070746F5F6964206572726F723A25642C92
:1006B0002066756E635F69643A25640A0000000075
:1006C000626172636F64653A783A25642C20793AE6
:1006D00025642C20773A25642C20683A25642C2048
:1006E0006D73673A272573270A00000000B503469B
:1006F0001D48007810B1012833D10AE0242B07D11E
:1007000024201A49087001201749087018490870F8
:1007100028E0164816490978435415480078401CCB
:1007200013490870232B0CD101201249087010487E
:1007300000781149087000200B4908700C490870B6
:100740000EE00B48007832280ADB002009490870C7
:10075000094908700449087005490870FFF7E4FE6C
:1007600000E000BF00BF00BD2D00002038000020C9
:100770002C0000202E0000202F00002009E005485A
:10078000007830B1044801780448FFF7E3FEFFF732
:10079000CBFEF4E72E0000202F00002038000020C0
:1007A00029B1064AD2690243044BDA6104E0034AE4
:1007B000D2698243014BDA617047000000100240A9
:1007C00029B1064A92690243044B9A6104E0034A44
:1007D00092698243014B9A61704700000010024009
:1007E00030B500210022002400232D4D6D6805F056
:1007F0000C0121B1042905D0082923D105E0294D98
:10080000056022E0274D05601FE0254D6D6805F469
:100810007012234D6D6805F48034022505EB924279
:100820001CB9214D554305600BE01D4D6D6805F465
:1008300000351DB11C4D5543056002E0194D55436F
:10084000056002E0174D056000BF00BF144D6D68E4
:1008500005F0F0010909154D6B5C0568DD40456048
:100860000F4D6D6805F4E061090A104D6B5C456839
:10087000DD4085600A4D6D6805F46051C90A0B4D75
:100880006B5C4568DD40C560054D6D6805F4404111
:10089000890B074D6B5CC568B5FBF3F5056130BD91
:1008A0000010024000127A0000093D0014000020F0
:1008B00024000020704710B500F002F810BD0000C1
:1008C0000CB50020019000903348006840F480305F
:1008D0003149086000BF3048006800F400300090E3
:1008E0000198401C0190009818B90198B0F5A06FCC
:1008F000F1D12948006800F4003010B101200090C7
:1009000001E0002000900098012843D123480068AE
:1009100040F01000214908600846006820F00300FC
:1009200008600846006840F0020008601A48406805
:10093000194948600846406848600846406840F4E5
:10094000806048600846406820F47C104860084693
:10095000406840F4E81048600846006840F0807045
:10096000086000BF0C48006800F000700028F9D053
:100970000948406820F0030007494860084640687D
:1009800040F00200486000BF0348406800F00C00DF
:100990000828F9D10CBD00000010024000200240E0
:1009A000042808D14FF0E021096941F004014FF01B
:1009B000E022116107E04FF0E021096921F0040114
:1009C0004FF0E022116170477047000010B51348E6
:1009D000006840F00100114908600846406810496D
:1009E00008400E494860084600680E4908400B4917
:1009F00008600846006820F48020086008464068C7
:100A000020F4FE0048604FF41F008860FFF753FF9A
:100A10004FF000600449086010BD00000010024063
:100A20000000FFF8FFFFF6FE08ED00E010B500241F
:100A300040F22551054800F003F930B1034800F0B9
:100A4000BBF9C4B2204600F003F810BD00380140E5
:100A500010B5044600BF8021044800F0E4F80028E7
:100A6000F9D02146014800F0ACF910BD0038014032
:100A700010B586B00446012144F20400FFF7A0FE41
:100A80004FF40070ADF8140018208DF81700032003
:100A90008DF8160005A92248FFF776FC4FF4806018
:100AA000ADF8140004208DF8170005A91C48FFF7C5
:100AB0006BFC01940020ADF80800ADF80A00ADF819
:100AC0000C00ADF810000C20ADF80E0001A915487F
:100AD00000F006F9002240F22771124800F0DAF81F
:100AE000012240F225510F4800F0D4F840210D4872
:100AF00000F084F801210B4800F089F825208DF8DA
:100B0000000001208DF8010003208DF80200012073
:100B10008DF803006846FFF7C7FC06B010BD000063
:100B2000000801400038014010B540F22551064848
:100B300000F086F830B1044800F03EF9C4B2204617
:100B4000FFF7D4FD10BD00000044004010B586B092
:100B5000044601214804FFF723FE01210420FFF78A
:100B60002FFE0420ADF8140018208DF81700032084
:100B70008DF8160005A91F48FFF706FC0820ADF800
:100B8000140004208DF8170005A91A48FFF7FCFB94
:100B900001940020ADF80800ADF80A00ADF80C0093
:100BA000ADF810000C20ADF80E0001A9124800F0BD
:100BB00097F8002240F227710F4800F06BF80122ED
:100BC00040F225510C4800F065F801210A4800F078
:100BD0001EF826208DF8000001208DF80100042069
:100BE0008DF8020001208DF803006846FFF75CFCD9
:100BF00006B010BD000801400044004001F400723E
:100C0000B2F5007F00D100BFCA430280704721B116
:100C1000828942F40052828104E082894DF6FF739A
:100C20001A408281704702460020B1F5007F00D152
:100C300000BF13880B400BB1012000E0002070477B
:100C400070B50246002400230025002040F66A16F5
:100C5000B14200D100BFC1F3421501F01F030126CC
:100C600006FA03F3012D02D19689334006E0022DE6
:100C700002D1168A334001E0968A33400C120126D5
:100C800006FA04F41688344013B10CB1012000E0D8
:100C9000002070BDF0B5034600240026002500208A
:100CA00040F66A17B94200D100BF1846C1F342149A
:100CB00001F01F06012707FA06F5012C01D10C30BF
:100CC00004E0022C01D1103000E014301AB10768A2
:100CD0002F43076002E00768AF430760F0BD0000E4
:100CE0002DE9F04786B005460E460024A24600BF17
:100CF000A1460027B08900B100BF2F462C8A4CF6D0
:100D0000FF700440F08804432C82AC894EF6F31047
:100D10000440B08831890843718908430443AC8199
:100D2000AC8A4FF6FF400440B0890443AC8201A86E
:100D3000FFF756FD1F48874202D1DDF810A001E001
:100D4000DDF80CA0A88900F4004040B10AEBCA000D
:100D500000EB0A1031684900B0FBF1F807E00AEB3C
:100D6000CA0000EB0A1031688900B0FBF1F864207A
:100D7000B8FBF0F004012009642101FB1089A88967
:100D800000F4004040B1322000EBC900B0FBF1F0AC
:100D900000F00700044308E0322000EB0910642152
:100DA000B0FBF1F000F00F0004432C8106B0BDE869
:100DB000F08700000038014001468888C0F3080031
:100DC0007047C1F308028280704700BFFEE7000051
:100DD0000FB4054B10B503A9044A029800F01CF8A3
:100DE00010BC5DF814FB0000BD12000830000020AC
:100DF000004870473400002002E008C8121F08C1F4
:100E0000002AFAD170477047002001E001C1121F8B
:100E1000002AFBD1704700002DE9FF4F8DB00F462F
:100E20000546002606E025280BD0DDE90F12904785
:100E30006D1C761C28780028F5D111B03046BDE82D
:100E4000F08F0024A246A1460122E94900E00443B4
:100E500015F8013F203B02FA03F00842F7D1287849
:100E60002A2810D06FF02F022878A0F1300109292C
:100E700014D80AEB8A0102EB410144F0020400EBB2
:100E8000010A6D1CF0E701CF5FEA000A03D544F4C4
:100E90000054CAF1000A44F002046D1C28782E2880
:100EA00017D115F8010F44F004042A280ED06FF072
:100EB0002F022878A0F1300109290AD809EB89010D
:100EC00002EB410100EB01096D1CF2E757F8049BAE
:100ED0006D1C28786C280FD006DC4C2817D06828A9
:100EE0000DD06A2814D104E0742810D07A280FD1CC
:100EF0000DE044F400140AE044F4801401E044F4EA
:100F000040146978814202D104F580146D1C6D1C77
:100F100028786E281ED00CDC632830D004DC002832
:100F20008BD0582811D19FE0642867D069280CD154
:100F300064E073282DD004DC6F2872D0702804D1AF
:100F400094E075286ED078286DD0DDE90F129047B7
:100F5000761C4BE1C4F30250022806D0032809D0C6
:100F6000042801CF09D0066040E101CFF117C0E9A4
:100F700000613BE101CF068038E1067036E117F8E9
:100F8000040B8DF8000000208DF80100EB460120D5
:100F900003E057F804BB4FF0FF3061074FF000014A
:100FA00002D40DE008F10101884649450FDA804579
:100FB000F8DB1BF808100029F4D108E008F1010162
:100FC00088468142FADB1BF808100029F6D1DDE9DA
:100FD0000F23AAEB08008146214600F031F9304486
:100FE00000EB080604E0DDE90F121BF8010B904747
:100FF000B8F10108F7D221464846F2E00A21C4F3CD
:1010000002524FF0000B0891022A04D001CFC11701
:10101000032A09D00AE0FF1D27F00707F7E80201BD
:1010200008E02CE01EE01FE000B2C117042A01D145
:1010300040B2C117021E71F1000206DA0023D0EBA4
:10104000030063EB01012D2202E0220504D52B22CF
:101050008DF82420012203E0E20701D02022F7E7E7
:10106000904653E00A210BE0102109E010214FF0D7
:10107000000B44F004044FF00809089103E0082134
:101080004FF0000B0891C4F30252022A04D001CFA2
:101090000021032A06D006E0FF1D27F00707F7E826
:1010A000020103E080B2042A00D1C0B24FF0000870
:1010B00022072BD52A78702A07D0DDF820C08CF0C3
:1010C000100C5CEA0B0C05D00EE040228DF82420B9
:1010D000012208E050EA010306D030238DF82430C5
:1010E0008DF8252002229046089B83F0080353EADE
:1010F0000B030BD150EA010201D1620706D5302261
:101100008DF824204FF00108A9F101092A78582A06
:1011100004D038A20B9208AA0A920BE03AA2F9E78F
:101120005B46089AFFF731F80B9B9B5C0A9A521EAC
:101130000A92137050EA0102F2D10A98ADEB000056
:1011400000F1200B600702D524F4803401E04FF059
:101150000109D94502DDA9EB0B0000E0002000EBFE
:101160000B0141440890AAEB010AE00306D4DDE933
:101170000F232146504600F063F806444FF0000963
:1011800008E009A911F80900DDE90F12904709F1FB
:101190000109761CC145F4DBE0030CD5DDE90F2322
:1011A0002146504600F04CF8064404E0DDE90F12F9
:1011B00030209047761C0899481E08900029F5DCDD
:1011C00008E00A980A990078491C0A91DDE90F1293
:1011D0009047761CBBF10001ABF1010BF1DC21461D
:1011E0005046DDE90F2300F019F806446D1C21E696
:1011F00009280100303132333435363738396162ED
:1012000063646566000000003031323334353637B0
:101210003839414243444546000000002DE9F04181
:10122000044600251E461746880404D405E03946C6
:101230002020B0476D1C641EF9D52846BDE8F0811A
:101240002DE9F041044600251E469046C80301D50D
:10125000302700E02027880404D505E041463846C1
:10126000B0476D1C641EF9D52846BDE8F08100002A
:1012700010B50E4800680E49B0FBF1F0C4B26FF033
:101280000400FFF78DFBE11704EB5171C910094A07
:1012900011701046007800EB4001C1EBC0104FF612
:1012A000FF7101EAC0000449088010BD0000002061
:1012B00040420F00280000202A00002070B504469C
:1012C0000D46E1B20548FFF77CFD00BF80210348D1
:1012D000FFF7A9FC0028F9D0204670BD0038014076
:1012E00010B5FFF773FBFFF7C3FF4FF4E130FFF7D3
:1012F000BFFB4FF4E130FFF729FCFFF73FFA002076
:1013000010BD0040404040404040404041414141CC
:1013100041404040404040404040404040404040CC
:1013200040404005020202020202020202020202E0
:101330000202022020202020202020202002020261
:1013400002020202909090909090101010101010D5
:1013500010101010101010101010101010100202A9
:101360000202020288888888888808080808080815
:1013700008080808080808080808080808080202F9
:101380000202400003130008A81300080000002018
:1013900038000000F80D0008E013000838000020B5
:1013A00038040000080E000800A24A0400000000F3
:1013B0000000000001020304060708090000000005
:1013C00001020304010203040607080902040608D7
:1013D000000000000000000000000000000000000D
:0400000508000105E9
:00000001FF
